:020000040800F2
:100000000000032055010008A9010008A90100080B
:10001000A9010008A9010008A901000800000000CA
:10002000000000000000000000000000A90100081E
:10003000A901000800000000A9010008A9010008AA
:10004000A9010008A9010008A9010008A9010008E8
:10005000A9010008A9010008A9010008A9010008D8
:10006000A9010008A9010008A9010008A9010008C8
:10007000A9010008A9010008A9010008A9010008B8
:10008000A9010008A9010008A9010008A9010008A8
:10009000A9010008A9010008A9010008A901000898
:1000A000A9010008A9010008A9010008A901000888
:1000B000A9010008A9010008A9010008A901000878
:1000C000A9010008A9010008A9010008A901000868
:1000D000A9010008A9010008A9010008A901000858
:1000E000A9010008A9010008A9010008A901000848
:1000F000A9010008A9010008A9010008A901000838
:10010000A9010008A9010008A9010008A901000827
:10011000A9010008A9010008A9010008A901000817
:10012000A9010008A9010008A9010008A901000807
:0C013000A9010008A9010008A9010008AD
:10013C00D458C4500433C4188C42F9D370470360AC
:10014C0004308842FBD370470C48854600F028F8F1
:10015C000B480C490C4A0023FFF7EDFF0B480C49E8
:10016C000023FFF7EEFF0B480B490023FFF7E9FFD5
:10017C0000F04AF900F090F8FEE7000000000320C0
:10018C0008000020080000207C0400080800002063
:10019C00080000200800002008000020FEE70000F6
:1001AC00054B4FF000629A60D3F8882042F470023D
:1001BC00C3F88820704700BF00ED00E030B50A4D51
:1001CC0001444FF0FF33884201D1D84330BD10F8C1
:1001DC00012B5340082243F300042C40013A84EADB
:1001EC005303F8D1EFE700BF2083B8ED024A13693F
:1001FC00DB03FCD4704700BF00400058114910B518
:10020C00FFF7F4FF4CF2FB330B614B690E4C00F122
:10021C007840000B234043EAC00343F002034B61D8
:10022C004B6943F480334B61FFF7E0FF4B6923408C
:10023C004B610A694CF2FA331A420CBF01200020C0
:10024C0010BD00BF0040005805F8FFFF38B504464C
:10025C001048036803F16043B3F5802F0D4614D2A8
:10026C00426812F0010310D022F0010303F178432D
:10027C00A3F50043B3F5403F07D244B12146FFF745
:10028C009DFF2B1A5842584138BD0020FCE7012035
:10029C00FAE700BF008000082DE9F743524C534B9E
:1002AC0022689A4256D103F1F753626803F55F2333
:1002BC0003F2E6339A424DD167694D4B9F4249D1C7
:1002CC00E5684C4BA5F580729A4243D8182120461C
:1002DC00FFF774FFA66986423CD1E369F643B3424B
:1002EC0038D129463846FFF769FF2469844231D159
:1002FC00414B5A69002ABCBF404A9A6005F6FF750B
:10030C00B8BF02F188324FEA1535B8BF9A600024A5
:10031C00200300F1006000F50040FFF76FFFC8B14B
:10032C000134A542F4D1304D354C00214FF0FF384B
:10033C004FF0FF39E868884224D82969FFF786FF17
:10034C0040B12948FFF75AFF20B12B4A536943F0BB
:10035C000043536100210846FFF778FF80B1294B19
:10036C00D3E9001272B64FF0E02000240461C0F80B
:10037C00083D81F30888BFF34F8FBFF36F8F904711
:10038C0030BFFDE7401ACDE90089082828BF0820B6
:10039C006E460022531803F1006303F560330132FB
:1003AC001B7806F8013B9042F4D11348DDE9007646
:1003BC00FFF71CFF4CF2FB330361436943F001036D
:1003CC00436101F1006303F500431F600E51FFF719
:1003DC000DFF436923F00103436102694CF2FA33C8
:1003EC001A42B7D10831A5E700C007084F4154386D
:1003FC000080030800FF02000040005823016745FD
:10040C00048000080080000870B50F4B0F4DAB4204
:10041C00A3EB050607D0B610002455F8043B0134B5
:10042C009847A642F9D800F017F8094D094B5E1B06
:10043C00AB424FEAA60606D0002455F8043B013423
:10044C009847A642F9D870BD0000000000000000DB
:10045C000000000000000000F8B500BFF8BC08BCAC
:10046C009E467047F8B500BFF8BC08BC9E46704766
:040000050800015599
:00000001FF
