:020000040800F2
:1080000000000320519E000895A2000897A20008D6
:1080100099A200089BA200089DA200080000000091
:108020000000000000000000000000009FA2000807
:10803000A1A2000800000000A3A20008A5A2000859
:10804000A59E0008A59E0008A59E0008ADA20008F8
:10805000A59E0008A59E000817A3000821A30008FC
:10806000A59E0008BDB700080DA30008ADB7000825
:10807000A59E0008A59E0008B5A20008A59E0008C0
:10808000A59E0008A59E0008A59E0008A59E0008C4
:10809000A59E0008A59E0008A59E0008A59E0008B4
:1080A000A59E0008A59E0008A59E0008A59E0008A4
:1080B0009DB70008A59E0008A59E0008A59E000883
:1080C000A59E0008A59E0008A59E0008A59E000884
:1080D000C5A20008D5A20008A59E0008A59E00081C
:1080E000A59E0008A59E0008A59E0008A59E000864
:1080F000E5A20008EDA20008F5A20008A59E000870
:10810000A59E0008A59E0008A59E0008A59E000843
:10811000A59E0008A59E0008A59E0008A59E000833
:10812000A59E0008A59E0008FDA20008A59E0008C7
:0C813000A59E0008A59E0008A59E000862
:108140000348044B834202D0034B03B118477047E6
:10815000A8000020A8000020000000000548064BF1
:108160001B1AD90F01EBA301491002D0034B03B135
:1081700018477047A8000020A80000200000000059
:1081800010B5064C237843B9FFF7DAFF044B13B15F
:108190000448AFF300800123237010BDE0000020ED
:1081A00000000000E860010808B5044B1BB1044959
:1081B0000448AFF30080BDE80840CFE700000000AE
:1081C000E4000020E86001087BB972B90029BEBF55
:1081D00000204FF0004106E008BF00281CBF6FF0F0
:1081E00000414FF0FF3000F0B5B9ADF1080C6DE97A
:1081F00004CE002909DB002B1ADB00F04DF8DDF876
:1082000004E0DDE9022304B07047404261EB410124
:10821000002B1BDB00F040F8DDF804E0DDE9022371
:1082200004B0404261EB4101524263EB43037047AB
:10823000524263EB430300F02FF8DDF804E0DDE980
:10824000022304B0404261EB41017047524263EBAC
:10825000430300F021F8DDF804E0DDE9022304B077
:10826000524263EB4303704753B94AB9002908BF30
:1082700000281CBF4FF0FF314FF0FF3000F06AB90B
:10828000ADF1080C6DE904CE00F006F8DDF804E06D
:10829000DDE9022304B070472DE9F047089D0E4642
:1082A00004460F46002B4AD194468C45B2FA82F21E
:1082B00060D942B1C2F12003974020FA03F30CFACF
:1082C00002FC1F4394404FEA1C4E1FFA8CF6B7FB8A
:1082D000FEF1230C0EFB117743EA074301FB06F086
:1082E00098420AD91CEB030301F1FF3780F0158196
:1082F000984240F21281023963441B1AA4B2B3FBC4
:10830000FEF00EFB103344EA034400FB06F6A642DF
:108310000AD91CEB040400F1FF3380F00081A6426F
:1083200040F2FD806444023840EA0140A41B002171
:108330001DB1D4400023C5E90043BDE8F0878B425E
:1083400005D90DB1C5E9000100210846F5E7B3FAEA
:1083500083F1002946D1B34202D3824200F2F58074
:10836000841A66EB030201201746002DE5D0C5E90B
:108370000047E2E7002A40F09380A1EB0C034FEAAC
:108380001C471FFA8CFE0121B3FBF7F607FB1630E2
:10839000230C43EA00430EFB06F0984208D91CEB7D
:1083A000030306F1FF3802D2984200F2D08046461D
:1083B0001B1AA4B2B3FBF7F007FB103344EA0344E3
:1083C0000EFB00FEA64508D91CEB040400F1FF33A8
:1083D00002D2A64500F2B6801846A4EB0E0440EA8D
:1083E0000640A5E7C1F120078B4022FA07FC4CEAC2
:1083F000030C06FA01FE20FA07F426FA07F344EA12
:108400000E0400FA01F84FEA1C404FEA1449B3FB8E
:10841000F0FE1FFA8CF600FB1E3349EA03430EFB05
:1084200006F9994502FA01F20BD91CEB03030EF190
:10843000FF3A80F08580994540F28280AEF1020ECD
:108440006344A3EB0909A4B2B9FBF0F300FB139951
:1084500044EA094403FB06F6A64208D91CEB0404CF
:1084600003F1FF3068D2A64266D9023B644443EA76
:108470000E40A41BA0FB02E6B4427346B14652D3A1
:108480004FD05DB1B8EB030264EB090404FA07F7BF
:1084900022FA01F31F43CC40C5E9007400214CE7E8
:1084A000C2F1200120FA01F30CFA02FC26FA01F1D4
:1084B000964033434FEA1C471FFA8CFEB1FBF7F09E
:1084C00007FB1016190C41EA064100FB0EF68E421E
:1084D00004FA02F408D91CEB010100F1FF382DD297
:1084E0008E422BD902386144891B9BB2B1FBF7F64F
:1084F00007FB161143EA014306FB0EF1994208D926
:108500001CEB030306F1FF3814D2994212D9023E44
:1085100063445B1A46EA004136E73946EDE6184601
:1085200002E7F045ADD2BEEB020366EB0C06013864
:10853000B146A6E74646ECE7034698E74046D3E750
:10854000D6467EE76444023847E708460DE7023E18
:1085500063442DE7704700BF80EA0102844612F0B1
:10856000030F4FD111F0030F32D14DF8044D11F02C
:10857000040F51F8043B0BD0A3F101329A4312F0DF
:10858000803F04BF4CF8043B51F8043B16D100BFB8
:1085900051F8044BA3F101329A4312F0803FA4F149
:1085A00001320BD14CF8043BA24312F0803F04BFD0
:1085B00051F8043B4CF8044BEAD023460CF8013B3D
:1085C00013F0FF0F4FEA3323F8D15DF8044B7047E7
:1085D00011F0010F06D011F8012B0CF8012B002A25
:1085E00008BF704711F0020FBFD031F8022B12F014
:1085F000FF0F16BF2CF8022B8CF8002012F47F4FCF
:10860000B3D1704711F8012B0CF8012B002AF9D1D6
:10861000704700BF30B40478C4B10D78844685B18A
:108620000A462B4602E012F8013F2BB19C42FAD1D8
:10863000ACEB000030BC70471CF8014F002CEFD1B0
:10864000F6E71CF8014F002CFBD1F1E72046F1E7DB
:108650002DE9F047074649480E46354616F801EB26
:1086600010F80EC01CF0080CF7D1BEF12D0F5AD037
:10867000BEF12B0F03BF96F800E06446AE1C6446C3
:108680004BB9BEF1300F5CD00A23DFF8F4804FF015
:10869000050A99460AE0102B4AD04FF0FF38B8FB84
:1086A000F3F803FB08FA6FEA0A0A99460025284600
:1086B00005E02CD009FB00C0012516F801EBAEF156
:1086C000300CBCF1090F06D9AEF1410CBCF1190F09
:1086D0000BD8AEF1370C634510DDB5F1FF3FECD0A0
:1086E0004045E6D94FF0FF35E7E7AEF1610CBCF14C
:1086F000190F03D8AEF1570C6345EEDC6B1C0BD0A1
:1087000004B140420AB165B91160BDE8F087D445B3
:10871000D0DD4FF0FF35D0E722233B602846002A0A
:10872000F3D0711EF0E796F800E00124AE1CA7E735
:10873000BEF1300F11D04FF00F0A6FF0704899461C
:10874000B4E7337803F0DF03582B0BD008234FF046
:10875000070A6FF060489946A8E7307800F0DF001C
:108760005828E8D14FF0100996F801E04FF00F0AB1
:1087700002366FF070484B4698E700BFD1610108A0
:108780009999991964E700BF10B4044C84461346C4
:1087900020685DF8044B0A46614659E7080000204E
:1087A00010B4044C8446134620685DF8044B0A4616
:1087B00061464DE70800002070B50F4B0F4DAB42EE
:1087C000A3EB050607D0B610002455F8043B01348E
:1087D0009847A642F9D80DF087FC094D094B5E1B5E
:1087E000AB424FEAA60606D0002455F8043B0134FC
:1087F0009847A642F9D870BD786C0108786C0108DA
:10880000786C01087C6C010800000000000000008A
:108810000000000000000000000000000000000058
:108820000000000000000000000000000000000048
:108830000000000000000000000000000000000038
:1088400030B490F800F020F007016FF0000C10F049
:10885000070491F820F040F048804FF000046FF0DA
:108860000700D1E9002391F840F000F1080082FAF6
:108870004CF2A4FA8CF283FA4CF3A2FA8CF34BBBC1
:10888000D1E9022382FA4CF200F10800A4FA8CF23A
:1088900083FA4CF3A2FA8CF3E3B9D1E9042382FA08
:1088A0004CF200F10800A4FA8CF283FA4CF3A2FA1D
:1088B0008CF37BB9D1E9062301F1200182FA4CF255
:1088C00000F10800A4FA8CF283FA4CF3A2FA8CF3BC
:1088D000002BC6D0002A04BF04301A4612BAB2FADE
:1088E00082F200EBD20030BC7047D1E9002304F0E3
:1088F0000305C4F100004FEAC50514F0040F91F818
:1089000040F00CFA05F562EA05021CBF63EA0503B4
:1089100062464FF00004AAE7830730B547D0541EE3
:10892000002A3ED0CAB2034601E0013C39D303F825
:10893000012B9D07F9D1032C2CD9CDB205EB0525D0
:108940000F2C05EB054535D9A4F1100222F00F0CD0
:1089500003F1100EE6444FEA121C1A46C2E9005514
:10896000C2E9025510327245F8D10CF1010214F03F
:108970000C0F03EB021204F00F0C13D0ACF1040344
:1089800023F003030433134442F8045B9342FBD106
:108990000CF003042CB1C9B21C4403F8011BA34220
:1089A000FBD130BD64461346002CF4D1F9E70346F1
:1089B0001446C0E71A46A446E0E700BF18B3F0B477
:1089C00007468C4617F8015B01E0A54214D01CF85D
:1089D000014B002CF9D1DDB13E460C4616F8015B87
:1089E00000E063B114F8013B9D42FAD14DB1002380
:1089F0003B701660F0BC704773B13846E0E737460D
:108A0000EAE72E46F5E710680028D8D10020704725
:108A100015600020F0BC704717600370EAE700BFE4
:108A20000123FFF7CBBF00BF014B1868704700BFA1
:108A30000800002038B511F0FF040CD003460025D3
:108A400001E0431C05462146184600F093FB002830
:108A5000F7D1284638BD2146BDE8384000F08ABB32
:108A6000242B2DE9F84F43D8012B41D080464948AB
:108A70001F468E4675461EF801BB10F80B4014F0D9
:108A80000804F7D1BBF12D0F6FD0BBF12B0F08BF3E
:108A90009EF800B06FF0004908BF05F1020E73BBED
:108AA000BBF1300F4BD00A273B460025B9FBF7F648
:108AB000284607FB169A05E03AD007FB00C00125BF
:108AC0001EF801BBABF1300CBCF1090F06D9ABF1BC
:108AD000410CBCF1190F19D8ABF1370C63451EDD01
:108AE000B5F1FF3FECD08642E6D24FF0FF35E7E725
:108AF000FFF79AFF162303600020BDE8F88F102BC4
:108B0000D3D1BBF1300F23D01F46CEE7ABF1610CC0
:108B1000BCF1190F03D8ABF1570C6345E0DC6B1CBB
:108B20002BD054B9002AE8D085BB1160BDE8F88F7E
:108B3000E245C2DA4FF0FF35C2E74042F2E79EF865
:108B4000003003F0DF03582B08D008273B46ACE782
:108B50009EF8000000F0DF005828D5D110279EF8BD
:108B600001B03B460EF1020E9FE79EF800B04FF0B9
:108B7000004905F1020E012491E72223C8F80030D4
:108B800032B10EF1FF3148461160CFE78146F8E778
:108B90004846B2E7D161010862E700BF10B4044C57
:108BA0008446134620685DF8044B0A46614657E741
:108BB0000800002010B4044C8446134620685DF879
:108BC000044B0A4661464BE708000020844641EA10
:108BD000000313F003036DD1403A41D351F8043B35
:108BE00040F8043B51F8043B40F8043B51F8043B87
:108BF00040F8043B51F8043B40F8043B51F8043B77
:108C000040F8043B51F8043B40F8043B51F8043B66
:108C100040F8043B51F8043B40F8043B51F8043B56
:108C200040F8043B51F8043B40F8043B51F8043B46
:108C300040F8043B51F8043B40F8043B51F8043B36
:108C400040F8043B51F8043B40F8043B51F8043B26
:108C500040F8043B51F8043B40F8043B403ABDD295
:108C6000303211D351F8043B40F8043B51F8043B37
:108C700040F8043B51F8043B40F8043B51F8043BF6
:108C800040F8043B103AEDD20C3205D351F8043BC6
:108C900040F8043B043AF9D2043208D0D2071CBF92
:108CA00011F8013B00F8013B01D30B8803806046BB
:108CB000704700BF082A13D38B078DD010F0030331
:108CC0008AD0C3F10403D21ADB071CBF11F8013BA1
:108CD00000F8013B80D331F8023B20F8023B7BE7F0
:108CE000043AD9D3013A11F8013B00F8013BF9D21B
:108CF0000B7803704B7843708B78837060467047B5
:108D000040EA01039B0710B501D1032A17D8844616
:108D100001F1FF3E07E01EF8011F03F8011B541E7E
:108D200029B19C4622466346002AF4D110BD9444E2
:108D3000002CFBD003F8011B6345FBD110BD8E4610
:108D40008446DEF80040A4F1013323EA040313F063
:108D5000803F71460EF1040EDAD1043A032A4CF832
:108D6000044BEED87146D3E700000000000000007D
:108D700000000000000000000000000000000000F3
:108D800002780B78012A28BF9A4240F0D8806DE91A
:108D9000044540EA0104CDE902676FF0000C4FEA98
:108DA00044721AB380EA010414F0070F6BD100F08B
:108DB000070420F0070004F0030521F007014FEA43
:108DC000C505F0E8042314F0040FF1E804670CFA79
:108DD00005F462EA040266EA04060BD063EA0403BF
:108DE000624667EA0407664604E000BFF0E8042331
:108DF000F1E8046782FA4CF582EA0604A4FA8CF4DE
:108E00006CBB83FA4CF583EA0705A5FA8CF595B996
:108E100050E9022351E9026782FA4CF582EA06041E
:108E2000A4FA8CF483FA4CF583EA0705A5FA8CF5CD
:108E30002543DBD09CB92DBAB5FA85F424F007049C
:108E400027FA04F1DDE9026723FA04F303F0FF00D7
:108E500001F0FF01FDE80445A0EB0100704724BAD2
:108E6000B4FA84F424F0070426FA04F1DDE9026779
:108E700022FA04F202F0FF0001F0FF01FDE80445D0
:108E8000A0EB0100704714F0030F3CD110F0030475
:108E900028D150F8082B51F8083B82FA4CF582EAA9
:108EA0000305A5FA8CF55DB950F8042C51F8043C83
:108EB00082FA4CF582EA0305A5FA8CF5002DE8D07C
:108EC0002DBAB5FA85F424F0070423FA04F122FA46
:108ED00004F202F0FF0001F0FF01FDE80445A0EB01
:108EE000010070474FEAC40420F0030050F8082B3B
:108EF00021F0030151F8083B0CFA04F462EA040281
:108F000063EA0403C9E710F003041DD0A1EB0401D8
:108F100020F00300E40750F8042B06D012D28B781F
:108F20005FFAA2F4E41A06D12BB1CB785FFAB2F45F
:108F3000E41A00D133B920465DF8104B7047A2EB1C
:108F40000300704701F1040150F8042BCC0721F015
:108F5000030151F8043B48D824D222F07F4482FA1E
:108F60004CF594EA1325A5FA8CF50AD165B951F8A8
:108F7000043B84EA0204B4EB036F0ED150F8042BD7
:108F8000EBE74FEA132355E035F07F454DD10878E4
:108F9000FDE80445C0F1000070474FEA126203F09B
:108FA000FF0347E002EA1C4482FA4CF594EA1345B9
:108FB000A5FA8CF50AD165B951F8043B84EA02049C
:108FC000B4EB034F0CD150F8042BEBE74FEA1343FB
:108FD00030E015EA1C4528D10B884FEA124229E0FF
:108FE0004FEA124203EA1C4324E002F0FF0482FA33
:108FF0004CF594EA1365A5FA8CF50AD165B951F8D8
:10900000043B84EA0204B4EB032F09D150F8042B8B
:10901000EBE74FEA13630DE015F0FF0F05D10B6886
:109020004FEA122223F07F4304E04FF00000FDE8F6
:109030000445704712BA1BBA82FA4CF482EA030460
:10904000A4FA8CF5B5FA85F402FA04F203FA04F3F3
:109050004FEA1260FDE80445A0EB1360704700BFC3
:1090600008B410B5002A9DB0044636DB4FF40273F5
:10907000ADF814304FF000031B930291069120AB22
:1090800017D0013A4FF6FF7104920792ADF816100F
:109090001F9A019302A900F0B9F9421C01DA8B234F
:1090A0002360029B00221A701DB0BDE8104001B081
:1090B00070474FF6FF7104920792ADF816101F9A91
:1090C000019302A900F0A2F9431C01DA8B2323606B
:1090D0001DB0BDE8104001B070478B2303604FF016
:1090E000FF30F5E70CB410B5214B00291C689CB08B
:1090F00038DB4FF000034FF402721B93ADF81420DD
:10910000029006901FAB18D001394FF6FF72049100
:109110000791ADF8162002A91E9A0193204600F08F
:1091200075F9421C01DA8B232360029B00221A701E
:109130001CB0BDE8104002B070474FF6FF720491BA
:109140000791ADF8162002A91E9A0193204600F05F
:109150005DF9431C01DA8B2323601CB0BDE810408D
:1091600002B070478B2323604FF0FF30F5E700BF5C
:109170000800002011F0FF01034600F0030239D07F
:109180008ABB026810B501EB012E0EEB0E4E8EEA83
:109190000204A2F1013323EA0203A4F1013222EA1C
:1091A0000402134313F0803F0FD150F8044F84EAB8
:1091B0000E0CA4F10133ACF1013223EA040322EADC
:1091C0000C02134313F0803FEFD0037823B936E04D
:1091D00010F8013F002B32D09942F9D110BD8A42DC
:1091E00028D09A0729D01A7818460133002AF6D1D8
:1091F00010467047CAB90268A2F1013323EA02039C
:1092000013F0803F08D150F8042FA2F1013323EA74
:10921000020313F0803FF6D003785BB110F8013FF2
:10922000002BFBD17047990705D0184613F8012B86
:10923000002AF8D170471846DDE71846A1E718461E
:1092400010BD00BF2DE9F0478F681D46AF420B6887
:109250000C46164636D8B1F90CC01CF4906F0ED1EE
:109260003D46184631462A4600F0EEFAA368DF1B59
:109270002368A7602B4400202360BDE8F0874A697B
:10928000096902EB42025F1A02EBD2726B1C5210A8
:109290003B44934292BF914699461A461CF4806F14
:1092A000804611D0114600F0F1F9824600B32169E1
:1092B0003A46FFF78BFCA38923F4906343F08003C5
:1092C000A38105E02F46CCE700F092FB824658B11F
:1092D0000AEB0703A9EB0707A760C4F810A0C4F8BE
:1092E000149023602F46BCE72169404600F04EFAF7
:1092F000A3890C2243F04003C8F800204FF0FF3050
:10930000A381BAE72DE9F04F9368176883B09246BE
:10931000002B74D04FF0000B8B680A6881460C4616
:109320005D4645E0B4F90C3013F4906F2CD0D4E9CD
:109330000401161A01EB410202EBD272711C5210A9
:109340002944914292BF904688460A465B0539D52A
:109350001146484600F09AF9019000283DD0324667
:109360002169FFF733FCA289019B22F4906242F04D
:109370008002A2819819A8EB0606A660C4F81480A2
:1093800023612060A8462E463246594600F05CFA1A
:10939000DAF80810A3682268A3EB08033244491BDB
:1093A000A3602260CAF8081049B3D7E900B50837AE
:1093B00098461046002DF8D09D421E46B2D2A846CF
:1093C0002E46E1E70146484600F012FB034600281E
:1093D000D0D12169484600F0D9F9A3890C2243F085
:1093E0004003C9F800204FF0FF30A3810022002382
:1093F000CAF80820CAF8043003B0BDE8F08F002096
:109400000023CAF8043003B0BDE8F08F2DE9F04F17
:109410001C468B891D069DB088468146934603D520
:109420000B69002B00F0F1800023099343F2200325
:10943000ADF829309BF800307D4D03940126002BB8
:1094400073D0DA4603E01AF8013F002B75D0252BC4
:10945000F9D1BAEB0B0473D19AF80020002A64D03A
:1094600000234FF0FF32CDE905230AF1010A0493EE
:1094700007938DF853301A9305E0049A06FA03F324
:109480001A430492A2465446052214F8011B2846AA
:1094900000F05EFAA346431B0028EED1049BD806D9
:1094A00044BF20228DF8532019079AF8001044BFBA
:1094B0002B228DF853202A2950D1039A11680432A7
:1094C000002903927CDB07919AF801102E295BD0CA
:1094D000584C0322204600F03BFA38B1049B001B95
:1094E0004022824013430BF1010B04931BF8011B34
:1094F00051488DF82810062200F02AFA002865D07D
:109500004E4B002B55D003AA00924D4B424604A966
:109510004846AFF3008007467A1C06D0099B3B44BF
:1095200009939BF80030002B8BD1B8F80C305B0608
:109530007AD409981DB0BDE8F08FBAEB0B04F4D0D3
:1095400023465A4641464846FFF77CFE0130ECD0A0
:10955000099B9AF80020234409937FE7A1F1300288
:10956000092A88BFD346B1D8079B00E0013421788F
:1095700003EB830302EB4303A1F13002092AF5D97F
:109580002E290793A346A3D19BF801102A2927D19E
:10959000039B9BF802101A6805920433002A0BF112
:1095A00002000393B8BF4FF0FF338346B8BF059363
:1095B0008EE7039B073323F0070308330393ADE7DC
:1095C000494243F00203079104937DE703AA009206
:1095D0001B4B424604A9484600F0CEFA07469BE7DB
:1095E000A1F130020023092A05930BF1010B3FF68C
:1095F0006FAF1BF8011F03EB830302EB4303A1F1E1
:109600003002092AF5D9059362E7402100F03EF8BF
:10961000C8F80000C8F8100018B14023C8F814308A
:1096200002E70C23C9F800304FF0FF3082E700BF9B
:109630006C6A0108746A0108786A01080000000079
:109640004592000870B5104E336805460C46B3B11C
:109650002146284600F0D6FB431C0CD0C41C24F045
:109660000304A04205D0211A284600F0CBFB0130AC
:1096700001D0204670BD4FF0FF34204670BD194622
:1096800000F0C0FB3060E3E7380200202DE9F8432A
:10969000CD1C25F0030508350C2D38BF0C25002DF9
:1096A000064618DBA94216D8DFF8DC8000F0A6FBDE
:1096B000D8F80420A2B1144603E0636822467BB1C7
:1096C0001C4623685B1BF8D40B2B1FD8944263689D
:1096D00054D053600CE00C2333600020BDE8F883C5
:1096E00029463046FFF7AEFF431C044619D00560FB
:1096F000304600F085FB04F10B00231D20F007002D
:10970000C21A1CBF1B1AA350BDE8F883611994420A
:10971000256014BF5160C8F80410635163684B6042
:10972000E6E7D8F804701FB33C467F68002FFBD1F2
:1097300023683946304604EB030900F063FB81459A
:1097400016D12368ED1A29463046FFF77BFF01301A
:109750000ED02368D8F804202B442360536883B1CB
:10976000A34203D01A465B689C42FBD10023B0E7BA
:109770000C233360304600F043FBAEE7C8F80430FA
:10978000B6E7C8F80470B3E738020020002950D0CB
:1097900038B551F8043C0C1F002BB8BFE41805463F
:1097A00000F02CFB274A13682BB1A3420CD9216887
:1097B000601883422CD0636028461460BDE83840AE
:1097C00000F01EBBA3420FD81A465B68002BF9D1EC
:1097D00011685018844217D02CD363605460284617
:1097E000BDE8384000F00CBB11685018A04214D0FE
:1097F00020D8216860188342EFD118685B6808445C
:10980000C4E900035460EAE723680B441360E6E709
:1098100018685B6808442060CDE720680144501850
:1098200083421160DBD1D3E900040144C2E9001492
:10983000D5E770470C232B602846BDE8384000F080
:10984000DFBA00BF3C02002088420ED98B18834249
:109850000BD900EB020C002A6ED0624613F801CD42
:1098600002F801CD9942F9D170470F2A0FD803466B
:1098700002F1FF3C002A5FD00CF1010C013B8C444B
:1098800011F8012B03F8012F6145F9D1704740EA27
:1098900001039B0751D1A2F1100370B501F1200C17
:1098A00023F00F0501F1100E00F11004AC441B0968
:1098B0005EF8105C44F8105C5EF80C5C44F80C5CDC
:1098C0005EF8085C44F8085C5EF8045C44F8045CEC
:1098D0000EF1100EE64504F11004E9D1013312F047
:1098E0000C0F01EB031102F00F0400EB031328D05F
:1098F000043C24F003064FEA940C1E441C1F8E46C1
:109900005EF8045B44F8045FB442F9D10CF1010441
:1099100002F0030203EB840301EB840102F1FF3C3C
:109920004AB10CF1010C013B8C4411F8012B03F8F6
:10993000012F6145F9D170BD704702F1FF3C03462C
:109940009AE72246EAE700BF00000000000000009E
:1099500001F0FF01102A2BDB10F0070F08D010F8E0
:10996000013B013A8B422DD010F0070F42B3F6D1E4
:10997000F0B441EA012141EA014122F007047FF0FD
:1099800000070023F0E80256083C85EA010586EA54
:10999000010685FA47F5A3FA87F586FA47F6A5FA90
:1099A00087F68EB9EED1F0BC01F0FF0102F007029C
:1099B00032B110F8013B013A83EA010313B1F8D147
:1099C0000020704701387047002D06BF3546033828
:1099D000073815F0010F07D1013015F4807F02BF61
:1099E000013015F4C03F0130F0BC0138704700BFB2
:1099F0002DE9F041144641B30AB306460D4600F086
:109A000013FA8442074602D8B4EB500F13D821460C
:109A10003046FFF73BFE804650B1BC422246294605
:109A200028BF3A46FFF7D2F829463046FFF7AEFE88
:109A30004046BDE8F081A8464046BDE8F081A0461A
:109A4000FFF7A4FE4046BDE8F081BDE8F0411146B5
:109A5000FFF71CBE2DE9F84F92461F460A698B6836
:109A6000DDF828909A42B8BF1A46CAF8002091F84B
:109A700043300C46064613B10132CAF80020226872
:109A800091065FD5DAF800300233CAF80030226858
:109A900012F0060F11461DD1E1689942D8BF114658
:109AA00018DD4FF0000804F1190B05E0E568DAF85D
:109AB0000030ED1A45450CDD01235A463946304643
:109AC000C847013008F10108F0D14FF0FF30BDE880
:109AD000F88F216894F84330003B18BF01238A06B1
:109AE0000AD5E1185A1C302081F84300224494F82A
:109AF000451082F84310023304F1430239463046E0
:109B0000C8470130E1D02368DAF80050216903F03A
:109B10000603042BD4E902201BD08A4220DD4FF03B
:109B20000008521A90441A34002501E0454517DA1E
:109B30000123224639463046C847013005F1010568
:109B4000F4D1C2E712F0060F0DD0003B18BF01237D
:109B5000D2E7401B8A4220EAE078E2DC0028E2DC1F
:109B60000020BDE8F88FE168DAF800309942D8BFEC
:109B7000114696DCAEE700BF2DE9F047174684B0EA
:109B80000A7E0C9D0C460646984601F1430C002ABD
:109B900035D0A2F15803D9B2202969D8202B67D833
:109BA000DFE813F0E6006600660066006600660007
:109BB00066006600660066006600AC007000660025
:109BC000660066006600700066006600660066005B
:109BD00021008300C60066006600B60066008300B0
:109BE00066006600EC002B6822686169181D286019
:109BF00010061B6802D4520600F1E08019600023B1
:109C0000E1462361CDF800803B4603AA2146304659
:109C1000FFF720FF013020D023694A4639463046FD
:109C2000C047013019D02368E068DDF80C909B072D
:109C300018D5484516DD002504F1190A04E0E0684E
:109C4000A0EB0903AB420DDD0123524639463046F5
:109C5000C047013005F10105F1D14FF0FF3004B0EC
:109C6000BDE8F0874845B8BF484604B0BDE8F08776
:109C700084F84220012004F142090023206184F885
:109C80004330BFE72A682368111D1806296002D4F3
:109C9000590600F195801068014600286268C0F2FC
:109CA000938054484FF00A0E15E020682B6810F09E
:109CB000800F53F8041B02D1400648BF89B26F2AB7
:109CC0004C482B6014BF4FF00A0E4FF0080E0023D3
:109CD000626884F84330002AA26051DB236823F0D5
:109CE0000403236000294BD1002A7BD1E146BEF159
:109CF000080F56D0ACEB0903236183E72B681A6881
:109D000004332B6004F1420984F842200120B4E7B7
:109D10002B686268191D2960D3F80090002148461D
:109D2000FFF716FE002863D0A0EB09006060A4E7EF
:109D3000236843F02003236078222F4884F84520CD
:109D40002A6813F0800F52F8041B03D113F0400F60
:109D500018BF89B22A60DA0744BF43F020032360AA
:109D600019B9236823F0200323604FF0100EAEE7EB
:109D7000582384F845301F482368E1E72368DBE770
:109D80007546E146B1FBF5F305FB131A0A46AA42F4
:109D900010F80A1009F8011D1946F3D2BEF1080F98
:109DA000A8D12368DD07A5D5626823699A42A1DCA2
:109DB000302309F8013C09F1FF399BE719801EE7C0
:109DC000B2F90010084668E72D20002AA26084F846
:109DD000430002DB23F0040323600A2505484942BF
:109DE000AE46CEE7037884F8423004F142097EE7BC
:109DF000606842E7806A0108946A0108704700BF02
:109E0000704700BF38B5074D0022044608462A6057
:109E100001F07AFA431C00D038BD2B68002BFBD030
:109E2000236038BD4002002051F8043C181F002B6D
:109E3000BCBF0B58C0187047D458C4500433C41862
:109E40008C42F9D37047036004308842FBD37047DB
:109E50000C48854600F044F90B480C490C4A002395
:109E6000FFF7EDFF0B480C490023FFF7EEFF0B480F
:109E70000B490023FFF7E9FFFEF79EFC00F0FAF81C
:109E8000FEE700000000032008000020A8000020DA
:109E9000806C0108E00000200C1B0020E40103207E
:109EA000670A0320FEE784B04FF0B043DA6C42F05B
:109EB0000402DA64DA6C02F004020392039ADA6CA8
:109EC00042F00102DA64DA6C02F001020292029AB4
:109ED000DA6C42F00202DA64DB6C03F002030193F5
:109EE000019B04B07047000008B50348034B0360B2
:109EF00007F058F908BD00BF64040020000C0058AA
:109F000000B585B04FF0B0439A6C42F004029A64F9
:109F10009A6C02F004020392039A9A6C42F00102D6
:109F20009A649A6C02F001020292029A9A6C42F0D0
:109F300002029A649B6C03F002030193019B0022CE
:109F40000F210E2006F080FC0E2006F08DFC002272
:109F50000F213A2006F078FC3A2006F085FC05B087
:109F60005DF804FB38B50B4C0B4B23600025656096
:109F70000F23A36047F6FF73E3602561A561E561E8
:109F80006561204608F0FCF92A462946204608F07B
:109F90004DFA38BD440200200028004008B50448AE
:109FA000044B03600023436008F078F908BD00BF4C
:109FB000680200200010005830B59BB048220021F4
:109FC00008A8FEF7A9FC00240194029403940494C9
:109FD00005940694079407F03FF94FF0B042D2F889
:109FE000903023F01803C2F8903002F580621368B5
:109FF00023F4C06343F400731360136803F4C06375
:10A000000093009B472308934FF480330993012565
:10A010000A954FF480730B93129540230C9313947D
:10A0200008A807F01FFA6F230193022302930394F9
:10A030000494059406940794294601A807F09EFD10
:10A040001BB030BD00B595B0502200216846FEF728
:10A0500063FC4FF4405300934FF480431193022369
:10A06000129310231393684607F09FFF15B05DF815
:10A0700004FB000010B5164B164A9A6062B606F053
:10A0800031FB00F0B3FAFFF797FFFFF7DBFFFFF7B5
:10A090002BFFFFF708FFFFF733FFFFF763FFFFF723
:10A0A0007DFF01F05DFB05F01BFD00F0BBFA06F043
:10A0B0003BFB044600F0CCFA06F036FB001B002800
:10A0C000F8DD013405F0B4FF034807F0BFF8F3E70B
:10A0D00000ED00E000800008C80600207047000086
:10A0E000174B184A9A60D3F8882042F47002C3F8DC
:10A0F00088204FF0B0431A6842F001021A604FF412
:10A10000E0229A601968A2F1A262A2F205120A4046
:10A110001A60D3F8942022F00502C3F89420D3F8F3
:10A12000982022F00102C3F89820074ADA601A61E9
:10A130001A6822F480221A6000229A61704700BFD8
:10A1400000ED00E0008000080010042200B583B09C
:10A150004FF0B0431A6D42F400221A651B6D03F4F0
:10A1600000230193019B002211462E2006F06CFB78
:10A170002E2006F079FB03B05DF804FB0268124B59
:10A180009A4200D0704700B583B04FF0B0431A6DCB
:10A1900042F480121A651B6D03F480130193019B36
:10A1A000002211462C2006F04FFB2C2006F05CFB11
:10A1B000002211462D2006F047FB2D2006F054FB0F
:10A1C00003B05DF804FB00BF000C005810B596B05A
:10A1D00004465022002102A8FEF79EFB22680F4B86
:10A1E0009A4201D016B010BD4FF4007302934FF0A5
:10A1F0008053109302A807F0D8FE58B94FF0B0432F
:10A200001A6D42F480221A651B6D03F480230193BA
:10A21000019BE7E7FFF762FFF0E700BF001000587F
:10A2200010B596B004465022002102A8FEF774FB38
:10A230002268174B9A4201D016B010BD4FF400634C
:10A2400002934FF48073129302A807F0AEFEE0B9B8
:10A250004FF0B043D3F8902042F40042C3F890206E
:10A260009A6D42F480629A659B6D03F4806301935A
:10A27000019B00221146032006F0E6FA032006F0B7
:10A28000F3FA204608F068F9D6E7FFF727FFDFE783
:10A29000002800407047FEE7FEE7FEE7FEE7704754
:10A2A0007047704708B506F033FA08BD08B500F0EE
:10A2B00067FE08BD08B5024806F099FC08BD00BF5E
:10A2C000DC02002008B5024809F032FB08BD00BFDF
:10A2D0003C03002008B5024809F02AFB08BD00BF76
:10A2E000D003002008B502F0C1FA08BD08B502F09D
:10A2F00051FA08BD08B506F029FF08BD08B50248A7
:10A3000006F075FC08BD00BF7C02002008B51020D7
:10A3100006F0F4FE08BD08B5012006F0EFFE08BD0A
:10A3200008B5022006F0EAFE08BD000082B04FF03A
:10A33000B0431A6D42F480121A651B6D03F480134A
:10A340000193019B0A4B3F229A609A615A6842F43A
:10A350007C125A605A6942F47C125A615A6842F07F
:10A360003F025A605A6942F03F025A6102B0704798
:10A37000000C0058054BCA225A6253225A629A684E
:10A3800022F007029A60FF225A62704700280040BC
:10A39000704708B54FF0B043D3F8943013F0806F96
:10A3A00018D04FF0B043D3F8943013F0805F11D140
:10A3B00006F052FF06F050FF4FF0B043D3F8902064
:10A3C00042F48032C3F89020D3F8902022F48032F7
:10A3D000C3F8902008BD08B5FFF7DBFFFFF7A6FF25
:10A3E00008BD000008B500200BF098F968B181792C
:10A3F0004FF0B042054BC2F89C30D2F89C3023F4A9
:10A400007C5343EA0123C2F89C3008BDFECAFECA51
:10A4100008B54FF0B042936843F4004393600AF0EC
:10A42000F3FB054AD2F8803023F0070343F004031E
:10A43000C2F8803008BD00BF0004005808B5034BC7
:10A4400001220349002000F00DFE08BDB9A4000858
:10A45000A405002008B511491148FEF791FC78B118
:10A4600010490F48FEF78CFC80B10F490C48FEF7ED
:10A4700087FC50B90D480E4B036006F01AFC04E04F
:10A480000A480C4B036006F014FC08BD07484FF067
:10A49000B053036006F00DFCF7E700BF54630108FA
:10A4A000A4040020586301085C630108AC05002087
:10A4B000010000160400001608B50F4B1B88FF2B87
:10A4C00008D80E4A12780D2A0BD0581C0A49088069
:10A4D0000B49CA540B4B01220849002000F0C2FD71
:10A4E00008BDFFF7B7FF0021034B19804FF48072BE
:10A4F0000348FEF711FAEDE7A0040020A4050020B0
:10A50000A4040020B9A4000800B589B00AF05EFDDB
:10A510000E4A002120200AF02BFD0D4B00930D4B1D
:10A52000019369460C480BF063F80C4B02930C4BFB
:10A5300003930C4B049340F23C53059302A80AF09A
:10A5400019FE0AF03FFD09B05DF804FB155601083D
:10A55000FC03032091A30008C9A50008E40103201F
:10A56000F00203200805032000B585B00023009306
:10A5700001930293039343685B7B23B1012B1ED0AD
:10A5800005B05DF804FB00F053F90F238DF800309F
:10A590007F238DF802300B4A13681B0CADF80C308A
:10A5A0001368C3F30B03ADF80E3068460AF068FE7B
:10A5B00001F0BEFD002101200AF030FBE0E700239E
:10A5C0000370DDE7002004E04368B3F80B30B3F517
:10A5D000124F00D0704710B584B0044668460AF0A8
:10A5E0005DFE2046FFF7C0FF04B010BD08B5044B68
:10A5F0004FF400421A61FFF7EEFEFFF7F3FE08BDCD
:10A6000000400058034AD2F8903043F05003C2F89B
:10A61000903070470008005808B5FFF7F3FFFFF7C8
:10A62000A9FE08BD08B5FFF7F7FFFFF7F1FE0749E0
:10A63000002000F011FB00F0E9F8012108460AF0C3
:10A64000EDFAFFF7FBFEFFF75FFF08BD44020020B5
:10A6500008B54FF0FF300AF063FB08BD08B50AF0FB
:10A66000F3FA08BD08B5002120200AF011FB08BD4F
:10A6700008B502200AF03AFB08BD08B502200AF02E
:10A680004BFC08BD10B5044605F022FC28B9022C8D
:10A690000AD0102C02D0012C03D010BD01F082FE94
:10A6A000FBE701F083FEF8E701F081FEF5E700002B
:10A6B00070B58CB000230793089309930A930B930A
:10A6C0001C461D461E4606E04D4A02EBC302928818
:10A6D00015430133DBB2252B1ED8494A02EBC302D6
:10A6E0009279002AF5D0464A52F8332045488242F2
:10A6F000EAD000F58060824208D0B2F1904FE8D1F4
:10A700003F4A02EBC30292881643E2E73C4A02EB5F
:10A71000C30292881443DCE70123089303230A93BE
:10A7200026B93DBB002C48D10CB070BD07964FF048
:10A73000B043DA6C42F00102DA64DA6C02F0010232
:10A740000292029AD3F84C2142F00102C3F84C2144
:10A75000D3F84C3103F001030193019B07A94FF09B
:10A76000904006F0E5FB002231464FF0904006F0A5
:10A77000C0FCD6E707954FF0B043DA6C42F0020216
:10A78000DA64DA6C02F002020492049AD3F84C21E3
:10A7900042F00202C3F84C21D3F84C3103F002031B
:10A7A0000393039B174E07A9304606F0C1FB002216
:10A7B0002946304606F09DFCB4E707944FF0B043BD
:10A7C000DA6C42F00402DA64DA6C02F004020692F7
:10A7D000069AD3F84C2142F00402C3F84C21D3F876
:10A7E0004C3103F004030593059B074D07A9284648
:10A7F00006F09EFB00222146284606F07AFC93E7ED
:10A80000A86A0108000400480008004808B505F0DF
:10A81000A5FF05F0ABFF054AD2F8903043F4803332
:10A82000C2F89030FFF744FF08BD00BF0008005891
:10A8300010B588B00DF1040C094C0FCCACE80F003A
:10A8400094E80700ACE803002CF8022B120C8CF8FB
:10A8500000200AF0C1FC01A80AF0F3FC08B010BD0A
:10A8600038610108064A936A9BB2906A80B203E09D
:10A87000034B9A6A034690B28342F9D1704700BFF6
:10A880000028004001EB41020D4B03EBC2035B7D4E
:10A89000DBB2062B05D003EB430C094A02EBCC02DA
:10A8A0001075074A00EB400C02EBCC0C8CF815300D
:10A8B0008CF8141001EB410102EBC1025075704796
:10A8C000C4050020174B1B78DBB28B421DD0164B02
:10A8D00001EB410203EBC202127D5FFA82FC02EB44
:10A8E000420203EBC202507500EB400203EBC202CE
:10A8F000517500EB400203EBC20282F814C001EB79
:10A90000410103EBC10318757047074B00EB400290
:10A9100003EBC202517501EB410103EBC103187552
:10A92000704700BFC1050020C405002010B4234BB0
:10A930001B78DBB283422CD0214C00EB400204EBAD
:10A94000C20292F814C0537DDBB2527DD2B20CEB3E
:10A950004C0C04EBCC046275062B0BD0184A00EBB0
:10A96000400402EBC404247DE4B203EB430302EB96
:10A97000C302147500EB4000114B03EBC00301222E
:10A980001A730E4B1B78DBB2062B10D05DF8044B0C
:10A9900070470A4C2378DBB20A4A137000EB40027E
:10A9A000074B03EBC2035B7DDBB22370E2E70029B8
:10A9B000ECD1054B4FF0FF321A60E7E7C1050020EC
:10A9C000C4050020C0050020BC05002008B5104BC0
:10A9D0001B68B3F1FF3F02D1002080B208BDFFF732
:10A9E00041FF0B4B1B6883420AD3094B1B681B1AA0
:10A9F000084A107803FB00F0074B1B78D840ECE7BF
:10AA0000064B1A88121A024B1B681344F0E700BF6A
:10AA1000BC050020B8050020B9050020B6050020BF
:10AA200070B50446314B1B78DBB2062B13D12F4A8D
:10AA30001378DBB22E490B70107000EB40042D4BE5
:10AA400003EBC404062363752B4B4FF0FF321A60EF
:10AA50000025284670BDFFF7B9FF0546254B04EBDE
:10AA6000440203EBC20291680144916004EB44028A
:10AA700003EBC20290681D4A127802EB420203EB1C
:10AA8000C2039B68834225D8184B1B78D9B203EBCD
:10AA90004303184A02EBC3035B7DDBB20CE0154AAB
:10AAA00001EB410102EBC1014B7DD9B203EB430342
:10AAB00002EBC302537DDBB2062B07D003EB43034B
:10AAC0000C4A02EBC3039B688342E8D92046FFF798
:10AAD000D9FEBEE7054E31782046FFF7F3FE337806
:10AAE000DBB2034A13703470B3E700BFC105002026
:10AAF000C0050020C4050020BC05002010B548B3E7
:10AB0000044601282ED9013CA4B2194B1B68DA680F
:10AB100012F0040FF9D0DA68D2B262F49062DA600F
:10AB2000144B4FF40022DA60032005F0C7FE124AEE
:10AB300053696FF30F031C435461FFF793FE0F4BF0
:10AB400018600B4B1A68936843F480639360AFF30B
:10AB5000008010BDFFF786FE084B1860032005F04B
:10AB60009FFEF6E7064B1B78012BCCD1CDE700BF4B
:10AB7000440200200008005800280040BC050020C6
:10AB8000B905002038B52E4B9B6813F4806F05D0B3
:10AB90002C4B1B68DB6813F0040FF9D1294B1A68A2
:10ABA000936823F480639360274B1B78DCB203EB3C
:10ABB0004303264A02EBC3039D68FFF707FF844661
:10ABC000A84204D9224B01221A70002024E0214B14
:10ABD0001B8810FA83F3AB4206D21E4B188880B252
:10ABE0001B4B00221A7017E0A8B2A0EB0C0080B239
:10ABF000174B01221A700FE004EB4404134A02EBD6
:10AC0000C404A268A2EB0C02A26003EB43030F4A48
:10AC100002EBC3035C7DE4B2062C0ED0234604EBAA
:10AC200044010A4A02EBC10292689445E4D9074AFA
:10AC300002EBC1040022A260E7E7FFF75FFF38BD27
:10AC40000028004044020020C1050020C405002067
:10AC5000BA050020B405002010B5484B1B68CA2275
:10AC60005A6253225A62464B9A6842F020029A6016
:10AC70009A6802F00702C2F10402D2B241490A7096
:10AC80001B6903F4FE034FF4FE0191FAA1F10029C0
:10AC900031D0B1FA81F1CB40DBB20133DBB23A49BA
:10ACA0000B7037490969C1F30E010131374C21801E
:10ACB000013901FB03F3A3F5A073D3404FF6FE72F5
:10ACC00093421AD9324B4FF6FF721A80314B1A68F1
:10ACD00042F400221A60D3F8802042F40022C3F824
:10ACE000802000283FD12C4B01221A702B4B4FF0B3
:10ACF000FF321A600EE02021CDE79BB2244A138078
:10AD0000E4E700EB4002264B03EBC20300221A7378
:10AD10000130C0B20528F4D9224B06221A70174C14
:10AD20002268936823F480639360D368DBB263F492
:10AD30009063D360174B4FF40022DA60032005F0D4
:10AD4000BDFD2268936843F4804393600B4B1B68FE
:10AD5000FF225A6200220321084605F075FD0320F8
:10AD600005F082FD10BD054B1B68DB6813F4806F96
:10AD7000ECD0032005F094FDE8E700BF440200207A
:10AD800000280040B9050020B8050020B6050020C5
:10AD9000B405002000080058BA050020BC050020BA
:10ADA000C4050020C1050020F0B5EFF3108572B690
:10ADB0004FF0000CBCF1050F0CD80CEB4C0E154CF1
:10ADC00004EBCE0E9EF80C4024B10CF1010C5FFA9E
:10ADD0008CFCEFE7BCF1060F17D00E4E4FEA4C0487
:10ADE0000CEB4C0E06EBCE0E01278EF80C7085F3A3
:10ADF0001088CEF810008EF80D2004EB0C02D20063
:10AE0000B35081F800C00020F0BD85F31088012008
:10AE1000FAE700BFC405002038B50446EFF31085FB
:10AE200072B6032005F024FD254B1B68CA225A6226
:10AE300053225A6204EB4402224B03EBC2031B7BF6
:10AE4000DBB2022B09D01E4B1B68FF225A62032083
:10AE500005F00AFD85F3108838BD00212046FFF774
:10AE600065FD194B1B78DBB2062B07D0174A127809
:10AE7000D2B29A42E7D0FFF785FEE4E7144B9B6815
:10AE800013F4806F05D00E4B1B68DB6813F0040FC2
:10AE9000F9D10B4B1A68936823F480639360D368ED
:10AEA00013F0040FFBD0D368DBB263F49063D3607C
:10AEB000084B4FF40022DA60032005F0FFFCC2E7E4
:10AEC00044020020C4050020C1050020C005002068
:10AED000002800400008005870B504460D4600EBFD
:10AEE0004002214B03EBC2031B7BDBB2022B35D0AC
:10AEF000EFF3108672B6032005F0BAFC1B4B1B68FB
:10AF0000CA225A6253225A6204EB4402164B03EBE4
:10AF1000C20302221A739D605D602046FFF780FD28
:10AF2000134B1B78DBB2134A1278D2B29A4218D173
:10AF30000D4B04EB440203EBC2029268121A04EBBD
:10AF4000440403EBC4039A60084B1B68FF225A6257
:10AF5000032005F089FC86F3108870BDFFF75CFFC5
:10AF6000C6E7FFF70FFEEFE7C4050020440200200C
:10AF7000C1050020C005002008B5904708BD0000AD
:10AF8000F8B5EFF3108572B6314B1B68CA225A62CE
:10AF900053225A629A6822F480629A602D4A147889
:10AFA000E4B204EB4402D1002B4A0A44127BD2B231
:10AFB000022A13D0DA6812F0040FFBD0DA68D2B29A
:10AFC00062F49062DA60254B4FF40022DA6085F378
:10AFD00010881F4B1B68FF225A62F8BD1E4A04EB03
:10AFE0004401CB00D118D7580E691D4B1B7853B3C1
:10AFF0004B7BDBB2012B10D085F310882046FFF786
:10B000000BFF134B1B68CA225A6253225A623A46FC
:10B0100021463046FFF7B0FFDBE701212046FFF76E
:10B0200085FC85F3108804EB4403DA000A4B1344D3
:10B0300059682046FFF750FF054B1B68CA225A6229
:10B0400053225A62E3E7FFF79DFD85F31088C0E7BE
:10B0500044020020C1050020C4050020000800585B
:10B06000BA05002008B548B102280ED10748036090
:10B070000748084B036009F04BF906E006480360F7
:10B080000648074B036009F043F908BD5806002045
:10B09000D003002000800040600600203C03002018
:10B0A0000038014008B50368084A934208D002F509
:10B0B0003842934203D1064B1B6803B1984708BD41
:10B0C000044B1B68002BFAD09847F8E7008000403B
:10B0D000600600205806002008B50368084A93421D
:10B0E00008D002F53842934203D1064B1B6803B1E6
:10B0F000984708BD044B1B68002BFAD09847F8E727
:10B10000008000405C06002054060020244B4FF4D1
:10B1100080621A6101E000233BB1214BD3F88C20FF
:10B12000204B9A42F7D00123F6E74FF0B0439B68DB
:10B1300003F00C03042B04D0194B4FF48062DA6047
:10B1400070474FF0B042136843F48033136002F548
:10B150008042136823F0070343F001031360124B8E
:10B160001A6802F00702012AF9D100E03BB94FF05A
:10B17000B0431B6813F40033F8D01346F6E74FF0E2
:10B18000B042936823F0030343F0020393604FF04F
:10B19000B0439B6803F00C03082BF8D1CCE700BF49
:10B1A0000014005800040080004000584FF0B042E6
:10B1B000136843F48073136000E03BB94FF0B04371
:10B1C0001B6813F48063F8D00123F6E74FF0B04218
:10B1D000936823F0030343F001039360536A23F061
:10B1E000030353624FF0B0439B6803F00C03042B3E
:10B1F000F8D1704708B501E000233BB1184BD3F8F4
:10B200008C20184B9A42F7D00123F6E7144BD3F861
:10B210009020144B9A420BD0FFF7C8FF124A1368D4
:10B2200023F0070313600E4B4FF48062DA6008BD11
:10B230000E4BD3F8883013F4004F05D10B4BD3F8E5
:10B24000883013F4806FEED0054B4FF480621A61A2
:10B25000FFF7ACFF044A136823F007031360E2E72B
:10B2600000140058000400800040005800040058FA
:10B2700008B505F065FAFFF7BDFF084A1F23936183
:10B28000136823F0070343F003031360044A1369B0
:10B2900043F00403136130BF08BD00BF0004005831
:10B2A00000ED00E008B505F04BFAFFF7A3FF074AF1
:10B2B000136823F0070343F002031360044A136981
:10B2C00043F00403136130BF08BD00BF0004005801
:10B2D00000ED00E008B505F033FA034A136923F0E6
:10B2E0000403136130BF08BD00ED00E008B505F0B0
:10B2F0002EFA08BD08B5FFF709FF05F028FA08BDCA
:10B3000008B505F024FA08BD10B503460C4A0D49EE
:10B310000D48006840B10C4800680344521A93423B
:10B3200006D8094A136010BD0748084C0460F2E7CC
:10B33000FDF77AFB0C2303604FF0FF30F3E700BF0B
:10B34000000003200010000064060020101B0020F5
:10B35000F0B589B0002403940494059406940794EE
:10B360004FF0B043DA6C42F00102DA64DA6C02F0BA
:10B3700001020292029ADA6C42F00202DA64DA6C9A
:10B3800002F002020192019ADA6C42F01002DA64D1
:10B39000DB6C03F010030093009B224606214FF064
:10B3A000904005F0A6FE3F4E22464FF4087130460D
:10B3B00005F09FFE3C4F01221021384605F099FE12
:10B3C00006230393012504950594069403A94FF0E1
:10B3D000904005F0ADFD4FF40873039303A9304688
:10B3E00005F0A6FD1023039303A9384605F0A0FD40
:10B3F0000423039304940227059703A9304605F01C
:10B4000097FD182303934FF488130493059703A91A
:10B41000304605F08DFD2A462946092005F014FA2C
:10B42000092005F021FA2A4629460A2005F00CFADF
:10B430000A2005F019FA4FF480630393059503A9D8
:10B440004FF0904005F074FDF82303930323049319
:10B45000059403A94FF0904005F06AFD039503A9F8
:10B46000304605F065FD039504970594069707950A
:10B4700003A94FF0904005F05BFD4FF40073039378
:10B480000497079503A94FF0904005F051FD4FF444
:10B4900080730393079503A9304605F049FD09B071
:10B4A000F0BD00BF000400480010004830B58FB068
:10B4B0000024089409940A940B940C940D940DF1B3
:10B4C000080C414D0FCDACE80F0095E803008CE867
:10B4D00003004FF0B043DA6C42F40052DA64DA6CE5
:10B4E00002F400520192019A9A6C42F001029A64AD
:10B4F0009B6C03F001030093009B3448344B0360C2
:10B50000052343608460C460802303614FF480732B
:10B5100043614FF4806383612023C3614FF4005380
:10B52000036205F03BFA50BB2A482B4B03604FF4F3
:10B530000023436000238360C3600122026108216D
:10B540004161037642760621C16180F82030836232
:10B55000C36280F830204FF48052426380F8383064
:10B560001A4BC364986208F02BFF58B906230A935C
:10B570007F230B9304230C9300240D9406E0FEF725
:10B58000ADFDD1E7FEF7AAFDF0E70134052C10D898
:10B590000EAB03EB840353F8303C0893A31D0993CF
:10B5A00008A90C4809F052F80028EED0FEF796FDE5
:10B5B000EBE7002203210B2005F046F90B2005F0F4
:10B5C00053F90FB030BD00BF546101086806002078
:10B5D00008000240700700200000045030B59FB002
:10B5E00000241A941B941C941D9413941494159481
:10B5F0001694179418941994109411941294342258
:10B60000214603A8FDF788F94FF0B0431A6E42F4C3
:10B6100000621A661A6E02F400620292029A9A6D31
:10B6200042F001029A659B6D03F001030193019BB7
:10B6300048484FF0804303600723436084604FF025
:10B64000FF33C3600461846107F086FA18B941488A
:10B6500007F022FA08B1FEF741FD02231A930123F5
:10B660001B9300221C9204231D931AA9394807F04A
:10B67000EBFB00285AD100231393149315931793CF
:10B68000042213A9334807F0D3FA30B9082213A9CA
:10B69000304807F0CDFA00284BD0FEF71FFD0022FE
:10B6A00001211C2005F0D0F81C2005F0DDF82A4807
:10B6B0002A4B036000234360836040F23F12C26064
:10B6C00003614361836107F017FA002839D1002430
:10B6D000109411941294204D10A9284608F060F897
:10B6E0006023139314941594169417941894199432
:10B6F000042213A9284607F0D8FA28BB0023039395
:10B70000049305931A22069207934FF4005208926D
:10B7100009930B934FF000720C920D930F9303A9B2
:10B720000D4808F071F890B91FB030BDFEF7D6FC97
:10B73000A1E70C2213A9074807F07AFA0028AED037
:10B74000ABE7FEF7CBFCC2E7FEF7C8FCD6E7FEF797
:10B75000C5FCE9E7D806002024070020002C0140A2
:10B7600008B5FFF7F5FDFFF7A1FEFFF737FF094822
:10B77000094B0360042343604FF47A73836040F6FF
:10B78000FF73C36005F02CFD00B908BDFEF7A6FCF1
:10B79000FBE700BFC80600200030004008B50248A3
:10B7A00007F080F808BD00BFD806002008B5024B9E
:10B7B000D86C05F01CFA08BD7007002008B50820F9
:10B7C00005F09CFC08BD000038B50268184B9A4291
:10B7D00001D0002038BD04468268A3F57F33A3F270
:10B7E0000D139A4201D00020F4E78389032B01D086
:10B7F0000020EFE7837B032B01D90020EAE7D0F894
:10B8000050554FF4A961083001F0F0F9854201D09C
:10B810000020DFE7D4F8545540F25451204601F09F
:10B82000E5F9854201D00020D4E70120D2E700BF2E
:10B8300050414D3738B502680C4B9A4201D0002078
:10B8400038BD0446D0F8EC5640F2EC6101F0CEF978
:10B85000854201D00020F3E704F1080001F082FBEB
:10B8600008B90120ECE70020EAE700BF50414D375E
:10B87000F8B507460C46084601F0E4F9BB79A37118
:10B88000002501E00135EDB2032D11D84FF4A4726B
:10B8900002FB05F166183944083106F10800FDF78E
:10B8A00095F9337D012BEDD140F25912B283E9E7CE
:10B8B00097F82E3584F82E3597F82F3584F82F35E4
:10B8C000B7F83035A4F83035B7F93235A4F8323549
:10B8D000B7F83435A4F83435B7F83635A4F836352A
:10B8E000B7F83835A4F83835B7F83A35A4F83A350A
:10B8F000B7F83C35A4F83C35B7F83E35A4F83E35EA
:10B90000B7F84035A4F8403597F8443584F8443505
:10B91000002384F8453584F8423584F8433597F898
:10B920002E35042B09D0204601F080F9204601F085
:10B9300019FBB0FA80F04009F8BD022384F82E35D7
:10B94000F1E7000010B5064C2346013C33B102205C
:10B9500005F0E2FB0028F7D1012010BD0020FCE734
:10B96000A086010008B50021022005F0E5FB08BD16
:10B97000F0B585B004464B48FFF75CFF05464A48E2
:10B98000FFF758FF06464FF0FF3303930023009361
:10B9900001930293204601F0E5FA00287DD11DB9FC
:10B9A0001EB9404E012714E066B1002D4FD03D4B2B
:10B9B0005B683D4A52689B1A002B01DD394B02E05F
:10B9C000394B00E0374B5F680137364A934240D02D
:10B9D000344E364D4FF4DE62FF212846FCF79CFFC3
:10B9E000334B2B606F6040F2E462214605F10800A2
:10B9F000FDF7ECF840F2EC61284601F0F7F8C5F8E5
:10BA0000EC060223009306F178431B0B01930123FC
:10BA10000293FFF797FF002840D005F069F9D0B9ED
:10BA200000F0BEFDD8B903A9684605F047FA0546FF
:10BA300000F0B6FDB8B9D5B105F072F9FFF792FF85
:10BA400075BB039BB3F1FF3F23D0002026E0164BCC
:10BA5000B9E7154EBDE7FFF785FF00201EE0012086
:10BA600009F0FEFBDFE7002009F0FAFBE3E7002422
:10BA7000DD2CE1D80D4B03EBC403D3E9002306EB27
:10BA8000C401012005F0A0F905460028D4D10134F5
:10BA9000EEE73046FFF7CEFE00E0002005B0F0BD37
:10BAA0000020FBE700E0070800F00708D8070020A7
:10BAB00050414D3770B505462448FFF7BBFE04469C
:10BAC0002348FFF7B7FE002C30D150B1002C33D003
:10BAD0001E4B5B681E4A52689B1A002B2ADD1B49CD
:10BAE0002BE01A48FFF770FE06461948FFF76CFE78
:10BAF000044656B940B376B1144B5B68144A526899
:10BB00009B1A002B05DD114806E00028F3D10F48F1
:10BB100002E00F4800E00E4829460830FFF7A8FE73
:10BB2000044688B12846FFF723FF0DE00028CDD159
:10BB3000064902E0064900E0054940F2E4620831A6
:10BB40002846FDF743F80124204670BD00E00708B1
:10BB500000F00708104B1A68104B9A4201D00020E1
:10BB600070470D4B5A680E4B9A4201D00020704727
:10BB700010B509488468082101F038F8844201D0E2
:10BB8000002010BD044BDA689B68DB439A4201D069
:10BB90000020F6E70120F4E700D0070850465238AD
:10BBA000C33C5AA510B584B01F4BEC460FCB8CE8B4
:10BBB0000F000821604601F019F80290C04303907D
:10BBC000FFF7C8FF044620B9184B1B68B3F1FF3FCD
:10BBD00002D0204604B010BDFFF7B4FE0028F8D014
:10BBE00005F086F870B9DDE900231049012005F061
:10BBF000EBF8044648B105F093F8FFF7B3FE64B1E3
:10BC00000024E6E7FFF7AEFEE3E7DDE9022308499B
:10BC1000012005F0D9F80446EDE7FFF79BFF08B1D6
:10BC20000124D6E70024D4E77061010800D007089A
:10BC300008D0070810B584B0002301930293039342
:10BC40004FF0FF330093204B1B68B3F1FF3F38D018
:10BC5000022301937D23029301230393FFF772FED6
:10BC600080B305F045F8A8B900F09AFCB0B9694670
:10BC700001A805F023F9044600F092FC90B905F004
:10BC80004FF8FFF76FFEC4B9009BB3F1FF3F0DD033
:10BC9000002017E0FFF766FE002013E0012009F006
:10BCA000DFFAE4E7002009F0DBFAE8E7064B1B685F
:10BCB000B3F1FF3F03D0002004E0002002E00120A8
:10BCC00000E0012004B010BD00D0070810B5064CFC
:10BCD0002346013C33B1022005F01EFA0028F7D1BB
:10BCE000012010BD0020FCE7A086010008B500215E
:10BCF000022005F021FA08BD10B584B0002301939D
:10BD0000029303934FF0FF3300930223019300F15A
:10BD10007840000B02900391012009F0A1FAFFF78F
:10BD2000D5FFA8B104F0E4FFC0B9694601A805F049
:10BD3000C5F8044604F0F4FFFFF7D8FF002009F02F
:10BD40008FFA94B9009BB3F1FF3F04D1012402E0C4
:10BD5000044609F085FA204604B010BDFFF7C6FF7F
:10BD6000002009F07DFA0024F5E70024F3E7000045
:10BD700008B501210448FFF7BFFF00B908BD302115
:10BD80000248FFF7B9FFF9E700C007080080030881
:10BD9000002942D02DE9F04383B005461646894676
:10BDA0008318B3F5403F02D810F0070403D00020F9
:10BDB00003B0BDE8F083FFF789FF0028F7D004F057
:10BDC00097FF8046E8B9B4421FD2371B082F28BF1F
:10BDD00008274FF0FF33009301933A4609EB040123
:10BDE0006846FCF7F3FE6119DDE9002301F100610B
:10BDF00001F56031012004F0E7FF804628B93C449A
:10BE0000E1E7FFF773FF0020D2E704F089FFFFF7B7
:10BE10006DFFB8FA88F04009CAE7002070470000BB
:10BE200038B5044601F0A4FD08B9002038BDFFF77D
:10BE30004DFF0028F9D004F05BFF78B900251F2DD5
:10BE400010D8631962595B6805F1006101F5F821AA
:10BE5000012004F0B9FF28B90835F0E7FFF746FFE5
:10BE60000020E3E704F05CFFFFF740FF202D01D046
:10BE70000020DBE7034801F07BFD08B10120D5E796
:10BE80000020D3E700C0070808B5012210210248AE
:10BE900005F02FF908BD00BF0010004808B50021CB
:10BEA000012008F0F5FE08BD00B583B0054B0093F6
:10BEB000054B01936946054809F084FA03B05DF823
:10BEC00004FB00BF28000320EBBE0008D1BE000821
:10BED00010B50446406808300AF0DCF810B10123C0
:10BEE000237010BD00232370FBE708B528B101289B
:10BEF00006D11F2008F0EEFE02E01F2008F0DCFE55
:10BF000008BD000008B50F4BD3F88025B2F1FF3F04
:10BF100010D0D3F884350C480270C2F30722427067
:10BF20008370C3F30722C270C3F3074202711B0E72
:10BF3000437108BD002009F0F1FB0028F9D1034846
:10BF4000F7E700BF0070FF1F480F0020206C0108BA
:10BF500030B589B00024ADF8184009F0A3FFFFF711
:10BF6000D1FF054602460621204609F01BFF6A79EB
:10BF70002E4B1A722A795A72EA789A72AA78DA7271
:10BF80006A781A732A785A73294A1021182009F0FE
:10BF900009FF284A1021082009F004FF1821012078
:10BFA00009F030FF09F0CFFD0DF11A03019307AB43
:10BFB00000930DF11E030C222146012009F013FD10
:10BFC0001D4B00930C232246BDF81C10BDF81E002B
:10BFD00009F08BFE06AB009302232246BDF81A102F
:10BFE000BDF81E0009F081FE01221146204609F02D
:10BFF000D7FF124D0320287009F066FC6C700823EF
:10C00000EB7010212971AC70049403940122029208
:10C010000191009323462146204609F07BFCAB7832
:10C020000BB909B030BD09F01DFDFAE75C00002036
:10C03000106C0108006C010860630108D00E00203C
:10C0400070B58EB0044601281FD04FF496664FF4A9
:10C050004875244B93F87500FEF7DEFE022C19D0CC
:10C06000204B83F8744000200690059004900390C4
:10C070001D4B02930D23019300900346324629463F
:10C0800009F0C8FB80B10EB070BD184B1D88184B6D
:10C090001E88DEE7134B93F87430013BDBB2012BB3
:10C0A000DED809F096FBDBE711238DF82430114D23
:10C0B0000FCDCDF82500CDF82910CDF82D20CDF8E5
:10C0C00031302B788DF8353009A9122009F00AFF9C
:10C0D000012CD8D10849034B93F87500FEF7FCFEFC
:10C0E000D1E700BFD00E0020F06B0108CE0E00207B
:10C0F000CC0E00208061010846E0010008B5012255
:10C100001021094804F0F5FF084B93F87430052B13
:10C1100000D108BD09F05DFB044B002283F87420B8
:10C120000220FFF78DFFF4E700100048D00E00203A
:10C1300030B593B04322002101A8FCF7EDFB442366
:10C14000ADF818300823ADF81A304FF4A863ADF8F5
:10C150001C3002248DF81E4001258DF81F5012233B
:10C160008DF8203029238DF821309C23ADF8223022
:10C170004FF4FA73ADF824304FF0FF330A934FF4C5
:10C18000A473ADF82C308DF82E5020238DF831306B
:10C19000D8238DF8323006238DF8333003238DF801
:10C1A000353040F27263ADF836300D238DF83C30F7
:10C1B00004238DF83E30FFF777FE2946204608F02D
:10C1C0002DFD244A0021204608F0D2FE01A809F0E6
:10C1D00029F800283BD1FFF7BBFE09F043FF1E4CB6
:10C1E000002584F874504FF6FF73A3811B4A29463B
:10C1F000012008F0BDFE062009F02DFE00F0E8F851
:10C20000174B2A4604F175012846FEF7CDFD154B64
:10C210002A4604F176012846FEF7C6FD124D0FCDE1
:10C22000C4F80F00C4F81310C4F81720C4F81B306A
:10C230002B78E3771123A3730C4B80221A800C4BCD
:10C24000A0221A800120FFF7FBFE13B030BDFDF7DE
:10C2500045FFC0E7E9530108D00E0020FDC00008EB
:10C260009DBE000889BE000880610108CE0E002036
:10C27000CC0E002030B583B0044643783E2B21D04D
:10C28000FF2B4FD0052B0FD18288434B9B899A42BD
:10C290000DD00120FFF7D4FE4048012303703E4B30
:10C2A0009B89438000F095F8012003B030BD3A4DE2
:10C2B0000024AC8121464FF6FF7000F061F985F84B
:10C2C0007440E6E7C378012B0AD00C2BECD10DF1BA
:10C2D00006020DF10701304B988909F02FFEE3E7C4
:10C2E0002D4D95F87500FEF797FD95F87430042BE9
:10C2F00014D0294B052283F87420B4F80530264D5C
:10C30000AB810121B4F8050000F03AF9234800237D
:10C310000370AB89438000F05CF8C5E7062285F81E
:10C320007420EAE7B0F8033040F20942934227D084
:10C3300013D940F60E42934228D041F604029342AC
:10C34000B2D100221021164804F0D3FE0A21124B6C
:10C3500093F87600FEF7C0FDA6E740F20242934252
:10C3600008D040F2054293429ED10B4B988909F0C8
:10C370009AFB99E70021084B988909F00BFB93E79A
:10C380000121054B988909F0B5FB8DE7024B98898F
:10C3900009F0E0FC88E700BFD00E0020C80E0020A6
:10C3A0000010004808B500F015F808BD7047704748
:10C3B00008B50021022008F06BFC08BD08B501207B
:10C3C00008F094FC08BD08B5012008F0A5FD08BDE3
:10C3D000704770477047000008B54378FF2B01D0C5
:10C3E000002008BDB0F8032040F601439A4201D076
:10C3F0000020F6E7B0F807200C4B9B8801339A42E7
:10C4000006D00A4B1B8901339A4208D00020E8E786
:10C41000B0F80B100D3004F0D9F80120E1E7B0F8C6
:10C420000B100D3004F0FAF80120DAE76C00002060
:10C430002DE9F04F8FB0494809F022FE484B06AC79
:10C440000FCB84E80F000AAD85E80F00454F009739
:10C450000E2301222946022009F097FB424B0FCB05
:10C4600084E80F0085E80F003B4633F8020B059384
:10C47000012604964FF00A09CDF80C9002964FF071
:10C480000008CDF804804FF0120ACDF800A0142364
:10C490002A46022109F0C9FB344B0FCB84E80F0078
:10C4A00085E80F003B4633F8040B05930496CDF85E
:10C4B0000C900296CDF804804FF00C0BCDF800B034
:10C4C000DC232A46022109F0B0FB294B0FCB84E87C
:10C4D0000F0085E80F003B4633F8060B05930496E2
:10C4E000CDF80C900296CDF80480CDF800A0DC23A6
:10C4F0002A46022109F099FB1E4B0FCB84E80F005E
:10C5000085E80F003B4633F8080B05930496CDF8F9
:10C510000C900296CDF80480CDF800B0D7232A46BF
:10C52000022109F082FB144B0FCB84E80F0085E851
:10C530000F0037F80A0B05970496CDF80C90029679
:10C54000CDF80480CDF800A010232A46022109F07E
:10C550006CFB0A4B1E700FB0BDE8F08FD9C300080A
:10C56000946101086C000020706301088463010875
:10C5700098630108AC630108C06301084E0F0020F6
:10C580000A4609B94FF6FF70014B98819A737047BC
:10C590006C000020014B987B704700BF6C000020AE
:10C5A000014B1878704700BF4E0F0020074B9B7B54
:10C5B00003B9704710B582B0044C0090CBB2002292
:10C5C0006188208809F091FB02B010BD6C0000204A
:10C5D000074B9B7B03B9704710B582B0044C0090A9
:10C5E000CBB20022E188208809F07FFB02B010BDA9
:10C5F0006C000020074B9B7B03B9704710B582B0DD
:10C60000044C0090CBB200226189208809F06DFBB8
:10C6100002B010BD6C00002010B5EFF3108272B6AE
:10C62000064C636843F40023636082F31088044B74
:10C630001B6898474FF40023A36010BD000C0058FE
:10C64000500F002082B04FF0B043D3F8502142F495
:10C650008012C3F85021D3F8503103F480130193B2
:10C66000019B0A4B1A6A42F400721A62D3F8D42072
:10C6700042F40072C3F8D42040BF20BF044AD368FC
:10C6800043F40043D36002B0704700BF0008005875
:10C690000004005800B583B04FF0B0431A6D42F467
:10C6A00080121A651B6D03F480130193019B094BE3
:10C6B0001A6842F001021A601A6842F480321A6065
:10C6C0002C2004F0D1F82D2004F0CEF803B05DF852
:10C6D00004FB00BF000C0058EFF3108172B6044A4F
:10C6E000536823F00103536081F31088704700BF43
:10C6F000000C0058024B4FF480329A60704700BF24
:10C70000000C005808B5EFF3108172B6044A536864
:10C7100043F40013536081F3108808F0D1FC08BD86
:10C72000000C005808B508F0B3FC024B01229A60D7
:10C7300008BD00BF000C0058EFF3108172B6044A28
:10C74000536823F00203536081F31088704700BFE1
:10C75000000C0058064B4FF400329A60EFF3108142
:10C7600072B65A6822F400325A6081F3108870471A
:10C77000000C005808B5EFF3108172B6044A5368F4
:10C7800043F40033536081F3108808F0CDFC08BDFA
:10C79000000C005808B5144BDB6813F0020F04D1ED
:10C7A000114B5B6813F4003F14D00F4BDB6813F0A0
:10C7B000080F04D10C4B5B6813F4002F0DD00A4B0B
:10C7C000DB6813F0200F04D1074B5B6813F4001FE4
:10C7D00006D008BDFFF7CEFFFBE7FFF71DFFF8E728
:10C7E000FFF790FFF5E700BF000C005808B508F010
:10C7F000A9FC024B02229A6008BD00BF000C005841
:10C8000008B50C4BDB6813F0080F05D18047094BC6
:10C810004FF400229A6008BD074B1860EFF31081B7
:10C8200072B6044A536823F40023536081F31088DE
:10C83000F1E700BF000C0058500F0020EFF310810B
:10C8400072B6044A536823F00803536081F31088DA
:10C85000704700BF000C005808B508F0CFFC024B31
:10C8600008229A6008BD00BF000C005808B5144BA0
:10C87000DB6913F0020F0AD1114BDB6913F0010FD2
:10C880000DD10F4BDB6913F0080F10D108BD0C4B15
:10C890005B6813F0020FEFD1FFF7A8FFF6E7084B34
:10C8A0005B6813F0010FECD1FFF73CFFEEE7044BA0
:10C8B0005B6813F0080FE9D1FFF7CEFFE6E700BF92
:10C8C000000C0058B0F5FA7F40F28B80B0F57A7F0B
:10C8D0000CD8C82303FB00F0A0F5C330A0384E4BA2
:10C8E00083FB00C3C017C0EB63107BE040F2DC5356
:10C8F00098420FD84FF4967303FB00F0A0F59220F6
:10C90000A0F57870444B83FB00C3C017C0EB6310E5
:10C91000C83067E040F6C413984210D84FF4FA7359
:10C9200003FB00F0A0F53720A0F5D8703A4B83FB4D
:10C9300000C3C017C0EBA31000F5FA7052E0B0F5C9
:10C940007A6F10D84FF4487303FB00F0A0F5F41091
:10C95000A0F59060314B83FB00C3C017C0EB6310A0
:10C9600000F57A703EE041F27073984210D84FF4AF
:10C970002F7303FB00F0A0F52A10A0F56650264B9C
:10C9800083FB00C3C017C0EBE31000F5E16029E0B2
:10C99000B0F5FA5F10D84FF4167303FB00F0A0F562
:10C9A0005B10A0F53A501C4B83FB00C3C017C0EBD3
:10C9B000E31000F6C41015E042F21073984221D83B
:10C9C0004FF4FA7300FB03F3A3F57413A3F510639C
:10C9D000114880FB03C0DB17C3EBE01303F61C40D8
:10C9E00000E00020A0EBA10002B96438022A0CD0BC
:10C9F000032A0CD000280CDBB0F5616F0ADD4FF480
:10CA0000616007E04FF46160ECE7C838F0E732306E
:10CA1000F0E7002000B27047D34D6210F11976059F
:10CA2000012919D90388934218D801238B421BD2BC
:10CA300000B530F813E003F1004C0CF1FF3C30F886
:10CA40001CC0E6450CD996450CD80133DBB28B42AD
:10CA5000EFD301205DF804FB0020704700207047F1
:10CA60000020F7E70020F5E701207047844603889F
:10CA700093420DD20020431C8B4206D23CF8133067
:10CA8000934206D20130C0B2F5E70239C8B270470E
:10CA90000020704770B50446049D9A4210D9AA42FE
:10CAA0000FD2A1EB000E4FEAEE76A2EB030CAEFB29
:10CAB0000C01EA1A00230CFB0611FBF785FB20444E
:10CAC00070BD0846FCE7B0F810C0438AACEB030326
:10CAD0008B4218D8437B012B17D00CF5967C8C45E4
:10CAE00015D913780133DBB21370028A8A4204D855
:10CAF00083F0010000F00100704713F0030F0CBF3A
:10CB0000012000207047002070470220704702205B
:10CB1000704700002DE9F84305460E461446984636
:10CB20004FF4A4720021FBF7F7FE0B223146284692
:10CB3000FCF7E6F82C73012C28D042F21C532B8210
:10CB40004FF4C8736B82012C23D040F21D13AB82CB
:10CB50000123EB829C421FD00822AA73012C1DD016
:10CB60000426EE7305F11800012C19D01B49174655
:10CB70005200FCF72BF805F13800012C12D01849AF
:10CB8000B1467200FCF722F8002621E042F6F823B5
:10CB9000D5E740F25913DAE71022DEE70826E0E78E
:10CBA0001049E4E71049EBE704F10C0006F11C031F
:10CBB000424635F8131035F81000FFF783FE04EBFA
:10CBC0000611243125F811000134A742ECD80136B2
:10CBD000B14501D90024F8E7BDE8F883606C01088D
:10CBE000586C0108386C0108286C010810B504461F
:10CBF000084600214FF0FF320CE042F3000E0A4BD2
:10CC00000EEA030383EA52020CF1010CBCF1070F98
:10CC1000F3D90131814204D2635C5A404FF0000CD9
:10CC2000F4E7D04310BD00BF2083B8ED40B110B58C
:10CC300004464FF4DC61FFF7D9FFC4F8E00610BDED
:10CC400070470000002853D038B5044640F2E46233
:10CC50000021FBF761FE274B23600423A3800125FD
:10CC6000A57100231A46244904F10800FFF752FF7A
:10CC70002B460022214904F5A870FFF74BFF022341
:10CC800000221F4904F52670FFF744FF03232A46BC
:10CC90001C4904F57870FFF73DFF2422002104F5BC
:10CCA000A560FBF739FE184BC4F828350223A4F819
:10CCB0002C3541F27073A4F83035A4F83455502364
:10CCC000A4F83635DC23A4F83C3540F6B833A4F894
:10CCD0003E354FF47A73A4F8403584F844550B4B35
:10CCE000C4F84C35A4F850552046FFF79FFF38BDD7
:10CCF000704700BF43444937D4630108D863010833
:10CD0000E0630108E8630108535550374F454D383B
:10CD100000286FD003460168504A91426CD1828846
:10CD2000022A6BD18279042A6AD8C179012969D88B
:10CD3000008948F69F41884266D8B3F90A104848EE
:10CD4000814263DB40F6B830814261DC9989002979
:10CD500060D0042960D8D98927295FD996295FD85E
:10CD6000998AB3295ED9FA295ED8D88A40F6B831B3
:10CD700088425BD1198BB1F57A7F59D8997E012908
:10CD800058D8D87E012857D893F81CC0BCF1020FA0
:10CD900054D893F81DC0BCF1020F51D893F81EC0AF
:10CDA000BCF1010F4ED893F81FC0BCF1010F4BD856
:10CDB00093F820C0BCF1010F48D810B45C8A2CB1A4
:10CDC000B3F810C00CF1320C644541D9012A08D9DE
:10CDD00008B100293ED0042A08D000205DF8044B99
:10CDE00070475B8B002BF3D00220F7E7002933D08C
:10CDF0000020F3E7012070470220704702207047AF
:10CE000002207047022070470220704702207047BE
:10CE100002207047022070470220704702207047AE
:10CE2000022070470220704702207047022070479E
:10CE3000022070470220704702207047022070478E
:10CE4000022070470220704702207047022070477E
:10CE50000220C3E70220C1E70220BFE75355503745
:10CE600048F4FFFF002860D070B50446037B012B17
:10CE70005DD8427B012A5CD8012B3FD0002B41D1E9
:10CE8000E389B3F5816F56D1A28A40F21D139A420D
:10CE900053D142F60411238A40F6B732934252D955
:10CEA0008B4252D8638A632B51D9B3F57A7F50D81D
:10CEB000A57B42F6EC42294604F11800FFF7B0FDCD
:10CEC000002848D0E67B4FF47A72314604F13800EE
:10CED000FFF7A6FD10B300218E4224D900239D4206
:10CEE0001ED903EB0112243234F91220002A34DB5C
:10CEF000B2F5616F33DC0133DBB2F0E70029BDD15D
:10CF0000032015E0E389B3F5016F18D1A28A40F23E
:10CF100059139A4215D142F6EC41BCE7022007E0D2
:10CF20000131C9B2D8E7002002E001207047022099
:10CF300070BD0220FCE70220FAE70220F8E7022099
:10CF4000F6E70220F4E70220F2E70220F0E70220F1
:10CF5000EEE70220ECE70220EAE70220E8E7022001
:10CF6000E6E7000070B5A8B304460268244B9A4275
:10CF700032D18388042B32D18379032B31D84FF4FB
:10CF8000DC61FFF733FED4F8E03698422BD104F58C
:10CF9000A560FFF7BDFE054638BBD4F84C25194BFC
:10CFA0009A4224D1B4F85035012B22D194F8DA36C4
:10CFB000012B20D80646032E0FD84FF4A47006FB91
:10CFC00000F0083001212044FFF74CFFA8B90136DA
:10CFD000F6B2F0E7012500E00225284670BD0225E3
:10CFE000FBE70225F9E70A25F7E70225F5E7022521
:10CFF000F3E70225F1E70225EFE70225EDE700BFA1
:10D00000434449374F454D382DE9F04F85B004462C
:10D01000884691460A46817B1830FFF727FD054672
:10D020004A46E17B04F13800FFF720FD064605EB98
:10D03000001024306F1C07EB0611243105F10C039E
:10D0400034F813A005F10D0334F813B0CDF800B097
:10D050005346424634F9111034F91000FFF71AFD17
:10D060000390731C05EB0315243507EB03172437D6
:10D07000CDF800B05346424634F9171034F9150084
:10D08000FFF708FD014606F11C031D3634F8162093
:10D09000009234F813304A460398FFF7FBFC00B2C5
:10D0A00005B0BDE8F08F00002DE9F041D2B00028B6
:10D0B00000F0B68017461E460446002900F0B580F1
:10D0C000589B002B00F0B380599B002B00F0B180DF
:10D0D0000368002B00F0AF808388002B00F0AD8048
:10D0E000002A00F0AC80837C002B00F0AA80C37C77
:10D0F000002B00F0A8804FF4A4726846FBF766FD91
:10D10000A3890BB1ADF81030217D6846FFF7AAFE68
:10D110000546002840F08580B6F57A7F01D94FF4A6
:10D120007A762368190F4FEA031CBCEB030C61F1FC
:10D1300000018900A388A7FB03234FEA8C0041EA82
:10D140009C71FBF791F80146599B1860421E43F20F
:10D15000D3039A4279D8589A6846FFF7B4FC8046C0
:10D16000599B1875324619686846FFF74DFF599B61
:10D170009880E38923B11BB2984201DD599A9380CC
:10D18000238A0BB9BDF81430599AD380216860897D
:10D19000334A0023A1FB0001FBF766F8599B186195
:10D1A00010B90123599A1361B8F1000F2ED1E58807
:10D1B000599BB3F90430ED1AB4F908602E44002DE0
:10D1C00045DB002E45DB48F69F439D4243DC9E42F3
:10D1D00043DCA388A7FB033CA3FB050148F6A04260
:10D1E000002305FB0C11FBF73FF8599B9860A37DCA
:10D1F0008BB1A388A7FB0371A7FB060448F6A042E6
:10D20000002306FB0141FBF72FF805E00023599AA4
:10D210009360D36005E00020599BD860454600E04C
:10D220000125284652B0BDE8F0810125F9E7012526
:10D23000F7E70125F5E70125F3E70125F1E70125EA
:10D24000EFE70425EDE70425EBE70525E9E70625EB
:10D25000E7E70625E5E70625E3E70625E1E700BF62
:10D2600040420F00F8B50D469DF8181058B314460B
:10D270000646C27BAA4228D9827BA24227D904EB68
:10D280000512243230F9127039B107F1C802934205
:10D290001FDCA7F1C80293421DDB04EB0512243208
:10D2A00026F812309DF81C103046FFF7DBFD18B948
:10D2B000F38A0133F38209E004EB051101F1240440
:10D2C00026F8147002E0012000E00120F8BD0120E2
:10D2D000FCE70720FAE70720F8E72DE9F04784B0DC
:10D2E00014469DF8302050B30D4607464CB3032931
:10D2F00029D86BBB72BB9DF834102046FFF7B2FDF6
:10D30000064608BB4FF4A47303FB057A0AF108082C
:10D310000DF1040998E8070089E807001A4621463C
:10D320004046FBF753FC99E8070088E80700002314
:10D330008AF81330BD713846FFF778FC04E0012607
:10D3400002E0012600E00126304604B0BDE8F08787
:10D350000826F9E70926F7E710B50446B0F800E01B
:10D36000964504D2A2EB0E0E012300200AE0AEEB9C
:10D37000020EF9E7ACEB020CE64501D9E646184689
:10D380000133DBB28B4206D234F813C09445F1D29C
:10D39000A2EB0C0CF0E710BD70B51E4690F8AA3158
:10D3A000BBB315469389B3B3D0F898218C1AD0F843
:10D3B0009C21A24231D94FEA947EA10009194EF175
:10D3C000000E4FEA0E1040EA11704FEA011CBCEB50
:10D3D000010C60EB0E0E4FEA0E1040EA1C704FEA93
:10D3E0000C11B1EB0C0C60EB0E004101A2FB03230E
:10D3F0004FEA4C1041EADC61FAF736FF2B89181A24
:10D40000B0F5616F0BD83080049B53B11C600120D4
:10D4100000E0002070BD0020FCE70020FAE70020BB
:10D42000F8E70120F6E770B50446084611461E46A7
:10D4300000250F2D30D8002227E0A0EB020E0DE0D2
:10D44000A1EB0C039E4475450DD00CF1010CBCF111
:10D450000F0F19D89042F0D2A2EB000E6145EFD227
:10D46000ACEB0103EEE704EB021EE6449EF80EE18E
:10D47000BEF1010FE9D90CEB021C0CF1040C04EB1A
:10D480004C04B4F9060070BD0132072A02D84FF0EF
:10D49000000CDCE70135CCE73046F4E710B5044674
:10D4A0004FF4CA720021FBF737FA024B23600123C5
:10D4B000A38010BD4F454D3868B138B50C460546C0
:10D4C0004FF4D8720021FBF727FA2846FFF7E6FF52
:10D4D000C5F8944138BD704790B110B50446FFF7C8
:10D4E000DDFF0023C4F8A031C4F89C31C4F89831A2
:10D4F00084F8AB3184F8AA31012384F8AC3110BD33
:10D50000704758B110B50446FFF7C8FF002384F8F0
:10D51000AC3184F8AB3184F8AA3110BD70470000FB
:10D52000F8B5069F002855D016461D460446002F24
:10D5300050D090F8AC31012B4CD1C0F89811002399
:10D5400080F8AB31A2F51C53103B264A93423BD8DE
:10D55000D0F89431C3B3190F4FEA031CBCEB030C92
:10D5600061F100018900324600234FEA8C0041EA54
:10D570009C71FAF779FE0246A0F5967142F6B45313
:10D58000994228D8C4F89C61B5F57A7F28BF4FF43A
:10D590007A75A4F8A451BB7B84F8A831FB7B84F88E
:10D5A000A931B97B07F11800FFF7D6FE84F8A60170
:10D5B0002A46F97B07F13800FFF7CEFE84F8A70171
:10D5C000012384F8AA3105E0002384F8AA312389D5
:10D5D00001332381F8BD002384F8AA312389013364
:10D5E0002381F7E7B09F2D00002854D010B584B0F8
:10D5F00004461AB190F8AC31012B05D094F8AC3147
:10D60000012B32D004B010BD02AB00930DF10E031C
:10D61000FFF7C2FE0028F1D094F8A73194F8A611C4
:10D6200004EB03120A4492F80E2112BB01EB031023
:10D63000043004EB4000BDF80EC0A0F806C0FF2A7D
:10D6400005D004EB03130B44013283F80E21E38869
:10D650004FF6FF72934201D00133E380029BC4F87E
:10D66000A031012384F8AB31CCE723890133238136
:10D67000C8E701EB0310043004EB4000B0F906E00A
:10D68000BDF90EC002FB0ECC02F1010E9CFBFEFCAC
:10D69000A0F806C0D3E77047002856D030B585B053
:10D6A0001446054632B190F8AC31012B02D190F806
:10D6B000AB310BB905B030BD02AB00930DF10E03D9
:10D6C000FFF76AFE0028F5D0D5F8A031029AD21AE9
:10D6D000D017810041EA927193009B1840EB010042
:10D6E000010141EA13711A01D21A61EB0000030132
:10D6F00043EA12734FEA021CBCEB020C63EB00031B
:10D700005901D5F89C21A389A2FB03234FEA4C10B1
:10D7100041EADC61FAF758FD00F6B83241F2707365
:10D720009A42C7D86B893BB9A8814FF6FF729342E2
:10D73000C0D001336B81BDE7B5F90C2002FB0300BB
:10D740005A1CB0FBF2F0A881EFE77047014630B3F6
:10D75000002084460FE0013391F8A8219A4209D9AC
:10D7600001EB00121A4492F80E21012AF3D90CF1B0
:10D77000010CF0E7013091F8A931834201D900236F
:10D78000EAE791F8A80168B15BB1642202FB0CFCE6
:10D7900003FB00F0BCFBF0FC5FFA8CF0704700204C
:10D7A000704718467047002839D02DE9F8430E46D7
:10D7B00091468046A9B390F8AC31012B33D1C38890
:10D7C000132B33D9002712E004EB0715243536F963
:10D7D0001530224639464046FFF725FE26F815004B
:10D7E0000134E4B2B37BA342EED80137FFB2F37B3E
:10D7F000BB4201D90024F5E7F38A0133F382012308
:10D8000088F88E31B9F1000F04D10023A8F80A304E
:10D81000A8F80C30022388F8AC31012004E0002085
:10D820007047002000E00020BDE8F8830020FBE7FF
:10D8300010B50C46114600220CE040F3000E094BD7
:10D840000EEA030383EA50000CF1010CBCF1070F50
:10D85000F3D901328A4204D2A35C58404FF0000C45
:10D86000F4E710BD2083B8ED88B1F8B50F46164631
:10D870001D4604462C220021FBF74EF8E761266284
:10D880006562069BA3624FF0FF336361F8BD70478A
:10D89000F8B50F4616469DF818209DF81C1020B3C9
:10D8A0001D460446C369E3B1006AD0B1606AC0B1E5
:10D8B000BAB1B1B1FF2E14D9B6F5403F11D801224B
:10D8C000227000222283A06A984780B16760A66018
:10D8D000E560002323614FF0FF336361022323706F
:10D8E00004E004232370012323830020F8BD0423D4
:10D8F000237002232383F9E7F8B588B38C461546D5
:10D900001C46064642B30378022B25D103698B429D
:10D9100022D10CB3D02C1FD811F0070F1CD114F05A
:10D92000070F03D01A1981688A4215D12344B268BF
:10D93000934211D8B36A224629466046376AB847EF
:10D94000074680B1224629467069FFF771FF706172
:10D9500033692344336104E00423337003233383A6
:10D9600000273846F8BD042333703383F9E70000FD
:10D9700088B338B504460268194B9A4201D000209A
:10D9800038BD426803F1F75303F55F2303F2E63332
:10D990009A4201D00020F3E74269124B9A4201D02B
:10D9A0000020EDE7C368FF2B17D9B3F5403F01D93D
:10D9B0000020E5E785691821FFF718F9854201D0B5
:10D9C0000020DDE7E269A369DB439A4201D0002031
:10D9D000D6E70120D4E7002070470020D0E700BF41
:10D9E0004F41543800800308002845D010B588B056
:10D9F00004460378022B03D1026983689A4206D059
:10DA00000423237005232383002008B010BD43693D
:10DA1000DB43C2689A4205D00423037006230383C4
:10DA20000020F2E7202200216846FAF775FF134B29
:10DA3000009303F1F75303F55F2303F2E6330193F9
:10DA400063680293A3680393E36804930C4B059304
:10DA500018216846FFF7CAF80690C0430790636A2A
:10DA6000A16A6846984710B103232370CDE70423C9
:10DA7000237007232383C8E7002070474F415438A1
:10DA80000080030838B100220270026182604FF00A
:10DA9000FF3141610283704708B5B0F5805F01D363
:10DAA00040F6FF70064904A3D3E90023A0FB01015F
:10DAB000FAF7DAFB80B208BDC0E076D107000000BB
:10DAC000203A0BD60000000008B5B0F5805F01D306
:10DAD00040F6FF704FF0000C02184CEB0C0C1218C3
