:020000040800F2
:1000000000000320511E00087D2200087F22000806
:1000100081220008832200088522000800000000D9
:10002000000000000000000000000000872200081F
:1000300089220008000000008B2200088D220008A1
:10004000A51E0008A51E0008A51E00089522000890
:10005000A51E0008A51E0008FF22000809230008AD
:10006000A51E0008A51E0008F52200085537000847
:10007000A51E0008A51E00089D220008A51E000858
:10008000A51E0008A51E0008A51E0008A51E000844
:10009000A51E0008A51E0008A51E0008A51E000834
:1000A000A51E0008A51E0008A51E0008A51E000824
:1000B00045370008A51E0008A51E0008A51E00085B
:1000C000A51E0008A51E0008A51E0008A51E000804
:1000D000AD220008BD220008A51E0008A51E0008CC
:1000E000A51E0008A51E0008A51E0008A51E0008E4
:1000F000CD220008D5220008DD220008A51E000838
:10010000A51E0008A51E0008A51E0008A51E0008C3
:10011000A51E0008A51E0008A51E0008A51E0008B3
:10012000A51E0008A51E0008E5220008A51E00085F
:0C013000A51E0008A51E0008A51E000862
:100140000348044B834202D0034B03B11847704766
:10015000A4000020A4000020000000000548064B79
:100160001B1AD90F01EBA301491002D0034B03B1B5
:1001700018477047A4000020A400002000000000E1
:1001800010B5064C237843B9FFF7DAFF044B13B1DF
:100190000448AFF300800123237010BDD800002075
:1001A00000000000E8C6000808B5044B1BB1044974
:1001B0000448AFF30080BDE80840CFE7000000002E
:1001C000DC000020E8C600087BB972B90029BEBF78
:1001D00000204FF0004106E008BF00281CBF6FF070
:1001E00000414FF0FF3000F0B5B9ADF1080C6DE9FA
:1001F00004CE002909DB002B1ADB00F04DF8DDF8F6
:1002000004E0DDE9022304B07047404261EB4101A4
:10021000002B1BDB00F040F8DDF804E0DDE90223F1
:1002200004B0404261EB4101524263EB430370472B
:10023000524263EB430300F02FF8DDF804E0DDE900
:10024000022304B0404261EB41017047524263EB2C
:10025000430300F021F8DDF804E0DDE9022304B0F7
:10026000524263EB4303704753B94AB9002908BFB0
:1002700000281CBF4FF0FF314FF0FF3000F06AB98B
:10028000ADF1080C6DE904CE00F006F8DDF804E0ED
:10029000DDE9022304B070472DE9F047089D0E46C2
:1002A00004460F46002B4AD194468C45B2FA82F29E
:1002B00060D942B1C2F12003974020FA03F30CFA4F
:1002C00002FC1F4394404FEA1C4E1FFA8CF6B7FB0A
:1002D000FEF1230C0EFB117743EA074301FB06F006
:1002E00098420AD91CEB030301F1FF3780F0158116
:1002F000984240F21281023963441B1AA4B2B3FB44
:10030000FEF00EFB103344EA034400FB06F6A6425F
:100310000AD91CEB040400F1FF3380F00081A642EF
:1003200040F2FD806444023840EA0140A41B0021F1
:100330001DB1D4400023C5E90043BDE8F0878B42DE
:1003400005D90DB1C5E9000100210846F5E7B3FA6A
:1003500083F1002946D1B34202D3824200F2F580F4
:10036000841A66EB030201201746002DE5D0C5E98B
:100370000047E2E7002A40F09380A1EB0C034FEA2C
:100380001C471FFA8CFE0121B3FBF7F607FB163062
:10039000230C43EA00430EFB06F0984208D91CEBFD
:1003A000030306F1FF3802D2984200F2D08046469D
:1003B0001B1AA4B2B3FBF7F007FB103344EA034463
:1003C0000EFB00FEA64508D91CEB040400F1FF3328
:1003D00002D2A64500F2B6801846A4EB0E0440EA0D
:1003E0000640A5E7C1F120078B4022FA07FC4CEA42
:1003F000030C06FA01FE20FA07F426FA07F344EA92
:100400000E0400FA01F84FEA1C404FEA1449B3FB0E
:10041000F0FE1FFA8CF600FB1E3349EA03430EFB85
:1004200006F9994502FA01F20BD91CEB03030EF110
:10043000FF3A80F08580994540F28280AEF1020E4D
:100440006344A3EB0909A4B2B9FBF0F300FB1399D1
:1004500044EA094403FB06F6A64208D91CEB04044F
:1004600003F1FF3068D2A64266D9023B644443EAF6
:100470000E40A41BA0FB02E6B4427346B14652D321
:100480004FD05DB1B8EB030264EB090404FA07F73F
:1004900022FA01F31F43CC40C5E9007400214CE768
:1004A000C2F1200120FA01F30CFA02FC26FA01F154
:1004B000964033434FEA1C471FFA8CFEB1FBF7F01E
:1004C00007FB1016190C41EA064100FB0EF68E429E
:1004D00004FA02F408D91CEB010100F1FF382DD217
:1004E0008E422BD902386144891B9BB2B1FBF7F6CF
:1004F00007FB161143EA014306FB0EF1994208D9A6
:100500001CEB030306F1FF3814D2994212D9023EC4
:1005100063445B1A46EA004136E73946EDE6184681
:1005200002E7F045ADD2BEEB020366EB0C060138E4
:10053000B146A6E74646ECE7034698E74046D3E7D0
:10054000D6467EE76444023847E708460DE7023E98
:1005500063442DE7704700BF80EA0102844612F031
:10056000030F4FD111F0030F32D14DF8044D11F0AC
:10057000040F51F8043B0BD0A3F101329A4312F05F
:10058000803F04BF4CF8043B51F8043B16D100BF38
:1005900051F8044BA3F101329A4312F0803FA4F1C9
:1005A00001320BD14CF8043BA24312F0803F04BF50
:1005B00051F8043B4CF8044BEAD023460CF8013BBD
:1005C00013F0FF0F4FEA3323F8D15DF8044B704767
:1005D00011F0010F06D011F8012B0CF8012B002AA5
:1005E00008BF704711F0020FBFD031F8022B12F094
:1005F000FF0F16BF2CF8022B8CF8002012F47F4F4F
:10060000B3D1704711F8012B0CF8012B002AF9D156
:10061000704700BF30B40478C4B10D78844685B10A
:100620000A462B4602E012F8013F2BB19C42FAD158
:10063000ACEB000030BC70471CF8014F002CEFD130
:10064000F6E71CF8014F002CFBD1F1E72046F1E75B
:100650002DE9F047074649480E46354616F801EBA6
:1006600010F80EC01CF0080CF7D1BEF12D0F5AD0B7
:10067000BEF12B0F03BF96F800E06446AE1C644643
:100680004BB9BEF1300F5CD00A23DFF8F4804FF095
:10069000050A99460AE0102B4AD04FF0FF38B8FB04
:1006A000F3F803FB08FA6FEA0A0A99460025284680
:1006B00005E02CD009FB00C0012516F801EBAEF1D6
:1006C000300CBCF1090F06D9AEF1410CBCF1190F89
:1006D0000BD8AEF1370C634510DDB5F1FF3FECD020
:1006E0004045E6D94FF0FF35E7E7AEF1610CBCF1CC
:1006F000190F03D8AEF1570C6345EEDC6B1C0BD021
:1007000004B140420AB165B91160BDE8F087D44533
:10071000D0DD4FF0FF35D0E722233B602846002A8A
:10072000F3D0711EF0E796F800E00124AE1CA7E7B5
:10073000BEF1300F11D04FF00F0A6FF0704899469C
:10074000B4E7337803F0DF03582B0BD008234FF0C6
:10075000070A6FF060489946A8E7307800F0DF009C
:100760005828E8D14FF0100996F801E04FF00F0A31
:1007700002366FF070484B4698E700BFA9C70008E3
:100780009999991964E700BF10B4044C8446134644
:1007900020685DF8044B0A46614659E708000020CE
:1007A00010B4044C8446134620685DF8044B0A4696
:1007B00061464DE70800002070B50F4B0F4DAB426E
:1007C000A3EB050607D0B610002455F8043B01340E
:1007D0009847A642F9D80BF087FF094D094B5E1BDD
:1007E000AB424FEAA60606D0002455F8043B01347C
:1007F0009847A642F9D870BDE0CF0008E0CF0008C6
:10080000E0CF0008E4CF0008000000000000000076
:1008100000000000000000000000000000000000D8
:1008200000000000000000000000000000000000C8
:1008300000000000000000000000000000000000B8
:1008400030B490F800F020F007016FF0000C10F0C9
:10085000070491F820F040F048804FF000046FF05A
:100860000700D1E9002391F840F000F1080082FA76
:100870004CF2A4FA8CF283FA4CF3A2FA8CF34BBB41
:10088000D1E9022382FA4CF200F10800A4FA8CF2BA
:1008900083FA4CF3A2FA8CF3E3B9D1E9042382FA88
:1008A0004CF200F10800A4FA8CF283FA4CF3A2FA9D
:1008B0008CF37BB9D1E9062301F1200182FA4CF2D5
:1008C00000F10800A4FA8CF283FA4CF3A2FA8CF33C
:1008D000002BC6D0002A04BF04301A4612BAB2FA5E
:1008E00082F200EBD20030BC7047D1E9002304F063
:1008F0000305C4F100004FEAC50514F0040F91F898
:1009000040F00CFA05F562EA05021CBF63EA050334
:1009100062464FF00004AAE7830730B547D0541E63
:10092000002A3ED0CAB2034601E0013C39D303F8A5
:10093000012B9D07F9D1032C2CD9CDB205EB052550
:100940000F2C05EB054535D9A4F1100222F00F0C50
:1009500003F1100EE6444FEA121C1A46C2E9005594
:10096000C2E9025510327245F8D10CF1010214F0BF
:100970000C0F03EB021204F00F0C13D0ACF10403C4
:1009800023F003030433134442F8045B9342FBD186
:100990000CF003042CB1C9B21C4403F8011BA342A0
:1009A000FBD130BD64461346002CF4D1F9E7034671
:1009B0001446C0E71A46A446E0E700BF18B3F0B4F7
:1009C00007468C4617F8015B01E0A54214D01CF8DD
:1009D000014B002CF9D1DDB13E460C4616F8015B07
:1009E00000E063B114F8013B9D42FAD14DB1002300
:1009F0003B701660F0BC704773B13846E0E737468D
:100A0000EAE72E46F5E710680028D8D100207047A5
:100A100015600020F0BC704717600370EAE700BF64
:100A20000123FFF7CBBF00BF014B1868704700BF21
:100A30000800002038B511F0FF040CD00346002553
:100A400001E0431C05462146184600F093FB0028B0
:100A5000F7D1284638BD2146BDE8384000F08ABBB2
:100A6000242B2DE9F84F43D8012B41D0804649482B
:100A70001F468E4675461EF801BB10F80B4014F059
:100A80000804F7D1BBF12D0F6FD0BBF12B0F08BFBE
:100A90009EF800B06FF0004908BF05F1020E73BB6D
:100AA000BBF1300F4BD00A273B460025B9FBF7F6C8
:100AB000284607FB169A05E03AD007FB00C001253F
:100AC0001EF801BBABF1300CBCF1090F06D9ABF13C
:100AD000410CBCF1190F19D8ABF1370C63451EDD81
:100AE000B5F1FF3FECD08642E6D24FF0FF35E7E7A5
:100AF000FFF79AFF162303600020BDE8F88F102B44
:100B0000D3D1BBF1300F23D01F46CEE7ABF1610C40
:100B1000BCF1190F03D8ABF1570C6345E0DC6B1C3B
:100B20002BD054B9002AE8D085BB1160BDE8F88FFE
:100B3000E245C2DA4FF0FF35C2E74042F2E79EF8E5
:100B4000003003F0DF03582B08D008273B46ACE702
:100B50009EF8000000F0DF005828D5D110279EF83D
:100B600001B03B460EF1020E9FE79EF800B04FF039
:100B7000004905F1020E012491E72223C8F8003054
:100B800032B10EF1FF3148461160CFE78146F8E7F8
:100B90004846B2E7A9C7000862E700BF10B4044C9A
:100BA0008446134620685DF8044B0A46614657E7C1
:100BB0000800002010B4044C8446134620685DF8F9
:100BC000044B0A4661464BE708000020844641EA90
:100BD000000313F003036DD1403A41D351F8043BB5
:100BE00040F8043B51F8043B40F8043B51F8043B07
:100BF00040F8043B51F8043B40F8043B51F8043BF7
:100C000040F8043B51F8043B40F8043B51F8043BE6
:100C100040F8043B51F8043B40F8043B51F8043BD6
:100C200040F8043B51F8043B40F8043B51F8043BC6
:100C300040F8043B51F8043B40F8043B51F8043BB6
:100C400040F8043B51F8043B40F8043B51F8043BA6
:100C500040F8043B51F8043B40F8043B403ABDD215
:100C6000303211D351F8043B40F8043B51F8043BB7
:100C700040F8043B51F8043B40F8043B51F8043B76
:100C800040F8043B103AEDD20C3205D351F8043B46
:100C900040F8043B043AF9D2043208D0D2071CBF12
:100CA00011F8013B00F8013B01D30B88038060463B
:100CB000704700BF082A13D38B078DD010F00303B1
:100CC0008AD0C3F10403D21ADB071CBF11F8013B21
:100CD00000F8013B80D331F8023B20F8023B7BE770
:100CE000043AD9D3013A11F8013B00F8013BF9D29B
:100CF0000B7803704B7843708B7883706046704735
:100D000040EA01039B0710B501D1032A17D8844696
:100D100001F1FF3E07E01EF8011F03F8011B541EFE
:100D200029B19C4622466346002AF4D110BD944462
:100D3000002CFBD003F8011B6345FBD110BD8E4690
:100D40008446DEF80040A4F1013323EA040313F0E3
:100D5000803F71460EF1040EDAD1043A032A4CF8B2
:100D6000044BEED87146D3E70000000000000000FD
:100D70000000000000000000000000000000000073
:100D800002780B78012A28BF9A4240F0D8806DE99A
:100D9000044540EA0104CDE902676FF0000C4FEA18
:100DA00044721AB380EA010414F0070F6BD100F00B
:100DB000070420F0070004F0030521F007014FEAC3
:100DC000C505F0E8042314F0040FF1E804670CFAF9
:100DD00005F462EA040266EA04060BD063EA04033F
:100DE000624667EA0407664604E000BFF0E80423B1
:100DF000F1E8046782FA4CF582EA0604A4FA8CF45E
:100E00006CBB83FA4CF583EA0705A5FA8CF595B916
:100E100050E9022351E9026782FA4CF582EA06049E
:100E2000A4FA8CF483FA4CF583EA0705A5FA8CF54D
:100E30002543DBD09CB92DBAB5FA85F424F007041C
:100E400027FA04F1DDE9026723FA04F303F0FF0057
:100E500001F0FF01FDE80445A0EB0100704724BA52
:100E6000B4FA84F424F0070426FA04F1DDE90267F9
:100E700022FA04F202F0FF0001F0FF01FDE8044550
:100E8000A0EB0100704714F0030F3CD110F00304F5
:100E900028D150F8082B51F8083B82FA4CF582EA29
:100EA0000305A5FA8CF55DB950F8042C51F8043C03
:100EB00082FA4CF582EA0305A5FA8CF5002DE8D0FC
:100EC0002DBAB5FA85F424F0070423FA04F122FAC6
:100ED00004F202F0FF0001F0FF01FDE80445A0EB81
:100EE000010070474FEAC40420F0030050F8082BBB
:100EF00021F0030151F8083B0CFA04F462EA040201
:100F000063EA0403C9E710F003041DD0A1EB040158
:100F100020F00300E40750F8042B06D012D28B789F
:100F20005FFAA2F4E41A06D12BB1CB785FFAB2F4DF
:100F3000E41A00D133B920465DF8104B7047A2EB9C
:100F40000300704701F1040150F8042BCC0721F095
:100F5000030151F8043B48D824D222F07F4482FA9E
:100F60004CF594EA1325A5FA8CF50AD165B951F828
:100F7000043B84EA0204B4EB036F0ED150F8042B57
:100F8000EBE74FEA132355E035F07F454DD1087864
:100F9000FDE80445C0F1000070474FEA126203F01B
:100FA000FF0347E002EA1C4482FA4CF594EA134539
:100FB000A5FA8CF50AD165B951F8043B84EA02041C
:100FC000B4EB034F0CD150F8042BEBE74FEA13437B
:100FD00030E015EA1C4528D10B884FEA124229E07F
:100FE0004FEA124203EA1C4324E002F0FF0482FAB3
:100FF0004CF594EA1365A5FA8CF50AD165B951F858
:10100000043B84EA0204B4EB032F09D150F8042B0B
:10101000EBE74FEA13630DE015F0FF0F05D10B6806
:101020004FEA122223F07F4304E04FF00000FDE876
:101030000445704712BA1BBA82FA4CF482EA0304E0
:10104000A4FA8CF5B5FA85F402FA04F203FA04F373
:101050004FEA1260FDE80445A0EB1360704700BF43
:1010600008B410B5002A9DB0044636DB4FF4027375
:10107000ADF814304FF000031B930291069120ABA2
:1010800017D0013A4FF6FF7104920792ADF816108F
:101090001F9A019302A900F0B9F9421C01DA8B23CF
:1010A0002360029B00221A701DB0BDE8104001B001
:1010B00070474FF6FF7104920792ADF816101F9A11
:1010C000019302A900F0A2F9431C01DA8B232360EB
:1010D0001DB0BDE8104001B070478B2303604FF096
:1010E000FF30F5E70CB410B5214B00291C689CB00B
:1010F00038DB4FF000034FF402721B93ADF814205D
:10110000029006901FAB18D001394FF6FF72049180
:101110000791ADF8162002A91E9A0193204600F00F
:1011200075F9421C01DA8B232360029B00221A709E
:101130001CB0BDE8104002B070474FF6FF7204913A
:101140000791ADF8162002A91E9A0193204600F0DF
:101150005DF9431C01DA8B2323601CB0BDE810400D
:1011600002B070478B2323604FF0FF30F5E700BFDC
:101170000800002011F0FF01034600F0030239D0FF
:101180008ABB026810B501EB012E0EEB0E4E8EEA03
:101190000204A2F1013323EA0203A4F1013222EA9C
:1011A0000402134313F0803F0FD150F8044F84EA38
:1011B0000E0CA4F10133ACF1013223EA040322EA5C
:1011C0000C02134313F0803FEFD0037823B936E0CD
:1011D00010F8013F002B32D09942F9D110BD8A425C
:1011E00028D09A0729D01A7818460133002AF6D158
:1011F00010467047CAB90268A2F1013323EA02031C
:1012000013F0803F08D150F8042FA2F1013323EAF4
:10121000020313F0803FF6D003785BB110F8013F72
:10122000002BFBD17047990705D0184613F8012B06
:10123000002AF8D170471846DDE71846A1E718469E
:1012400010BD00BF2DE9F0478F681D46AF420B6807
:101250000C46164636D8B1F90CC01CF4906F0ED16E
:101260003D46184631462A4600F0EEFAA368DF1BD9
:101270002368A7602B4400202360BDE8F0874A69FB
:10128000096902EB42025F1A02EBD2726B1C521028
:101290003B44934292BF914699461A461CF4806F94
:1012A000804611D0114600F0F1F9824600B3216961
:1012B0003A46FFF78BFCA38923F4906343F0800345
:1012C000A38105E02F46CCE700F092FB824658B19F
:1012D0000AEB0703A9EB0707A760C4F810A0C4F83E
:1012E000149023602F46BCE72169404600F04EFA77
:1012F000A3890C2243F04003C8F800204FF0FF30D0
:10130000A381BAE72DE9F04F9368176883B092463E
:10131000002B74D04FF0000B8B680A6881460C4696
:101320005D4645E0B4F90C3013F4906F2CD0D4E94D
:101330000401161A01EB410202EBD272711C521029
:101340002944914292BF904688460A465B0539D5AA
:101350001146484600F09AF9019000283DD03246E7
:101360002169FFF733FCA289019B22F4906242F0CD
:101370008002A2819819A8EB0606A660C4F8148022
:1013800023612060A8462E463246594600F05CFA9A
:10139000DAF80810A3682268A3EB08033244491B5B
:1013A000A3602260CAF8081049B3D7E900B508372E
:1013B00098461046002DF8D09D421E46B2D2A8464F
:1013C0002E46E1E70146484600F012FB034600289E
:1013D000D0D12169484600F0D9F9A3890C2243F005
:1013E0004003C9F800204FF0FF30A3810022002302
:1013F000CAF80820CAF8043003B0BDE8F08F002016
:101400000023CAF8043003B0BDE8F08F2DE9F04F97
:101410001C468B891D069DB088468146934603D5A0
:101420000B69002B00F0F1800023099343F22003A5
:10143000ADF829309BF800307D4D03940126002B38
:1014400073D0DA4603E01AF8013F002B75D0252B44
:10145000F9D1BAEB0B0473D19AF80020002A64D0BA
:1014600000234FF0FF32CDE905230AF1010A04936E
:1014700007938DF853301A9305E0049A06FA03F3A4
:101480001A430492A2465446052214F8011B28462A
:1014900000F05EFAA346431B0028EED1049BD80659
:1014A00044BF20228DF8532019079AF8001044BF3A
:1014B0002B228DF853202A2950D1039A1168043227
:1014C000002903927CDB07919AF801102E295BD04A
:1014D000584C0322204600F03BFA38B1049B001B15
:1014E0004022824013430BF1010B04931BF8011BB4
:1014F00051488DF82810062200F02AFA002865D0FD
:101500004E4B002B55D003AA00924D4B424604A9E6
:101510004846AFF3008007467A1C06D0099B3B443F
:1015200009939BF80030002B8BD1B8F80C305B0688
:101530007AD409981DB0BDE8F08FBAEB0B04F4D053
:1015400023465A4641464846FFF77CFE0130ECD020
:10155000099B9AF80020234409937FE7A1F1300208
:10156000092A88BFD346B1D8079B00E0013421780F
:1015700003EB830302EB4303A1F13002092AF5D9FF
:101580002E290793A346A3D19BF801102A2927D11E
:10159000039B9BF802101A6805920433002A0BF192
:1015A00002000393B8BF4FF0FF338346B8BF0593E3
:1015B0008EE7039B073323F0070308330393ADE75C
:1015C000494243F00203079104937DE703AA009286
:1015D0001B4B424604A9484600F0CEFA07469BE75B
:1015E000A1F130020023092A05930BF1010B3FF60C
:1015F0006FAF1BF8011F03EB830302EB4303A1F161
:101600003002092AF5D9059362E7402100F03EF83F
:10161000C8F80000C8F8100018B14023C8F814300A
:1016200002E70C23C9F800304FF0FF3082E700BF1B
:10163000D4CD0008DCCD0008E0CD0008000000009B
:101640004512000870B5104E336805460C46B3B11C
:101650002146284600F0D6FB431C0CD0C41C24F0C5
:101660000304A04205D0211A284600F0CBFB01302C
:1016700001D0204670BD4FF0FF34204670BD1946A2
:1016800000F0C0FB3060E3E7300200202DE9F843B2
:10169000CD1C25F0030508350C2D38BF0C25002D79
:1016A000064618DBA94216D8DFF8DC8000F0A6FB5E
:1016B000D8F80420A2B1144603E0636822467BB147
:1016C0001C4623685B1BF8D40B2B1FD8944263681D
:1016D00054D053600CE00C2333600020BDE8F88345
:1016E00029463046FFF7AEFF431C044619D005607B
:1016F000304600F085FB04F10B00231D20F00700AD
:10170000C21A1CBF1B1AA350BDE8F883611994428A
:10171000256014BF5160C8F80410635163684B60C2
:10172000E6E7D8F804701FB33C467F68002FFBD172
:1017300023683946304604EB030900F063FB81451A
:1017400016D12368ED1A29463046FFF77BFF01309A
:101750000ED02368D8F804202B442360536883B14B
:10176000A34203D01A465B689C42FBD10023B0E73A
:101770000C233360304600F043FBAEE7C8F804307A
:10178000B6E7C8F80470B3E730020020002950D053
:1017900038B551F8043C0C1F002BB8BFE4180546BF
:1017A00000F02CFB274A13682BB1A3420CD9216807
:1017B000601883422CD0636028461460BDE838402E
:1017C00000F01EBBA3420FD81A465B68002BF9D16C
:1017D00011685018844217D02CD363605460284697
:1017E000BDE8384000F00CBB11685018A04214D07E
:1017F00020D8216860188342EFD118685B680844DC
:10180000C4E900035460EAE723680B441360E6E789
:1018100018685B6808442060CDE7206801445018D0
:1018200083421160DBD1D3E900040144C2E9001412
:10183000D5E770470C232B602846BDE8384000F000
:10184000DFBA00BF3402002088420ED98B188342D1
:101850000BD900EB020C002A6ED0624613F801CDC2
:1018600002F801CD9942F9D170470F2A0FD80346EB
:1018700002F1FF3C002A5FD00CF1010C013B8C44CB
:1018800011F8012B03F8012F6145F9D1704740EAA7
:1018900001039B0751D1A2F1100370B501F1200C97
:1018A00023F00F0501F1100E00F11004AC441B09E8
:1018B0005EF8105C44F8105C5EF80C5C44F80C5C5C
:1018C0005EF8085C44F8085C5EF8045C44F8045C6C
:1018D0000EF1100EE64504F11004E9D1013312F0C7
:1018E0000C0F01EB031102F00F0400EB031328D0DF
:1018F000043C24F003064FEA940C1E441C1F8E4641
:101900005EF8045B44F8045FB442F9D10CF10104C1
:1019100002F0030203EB840301EB840102F1FF3CBC
:101920004AB10CF1010C013B8C4411F8012B03F876
:10193000012F6145F9D170BD704702F1FF3C0346AC
:101940009AE72246EAE700BF00000000000000001E
:1019500001F0FF01102A2BDB10F0070F08D010F860
:10196000013B013A8B422DD010F0070F42B3F6D164
:10197000F0B441EA012141EA014122F007047FF07D
:1019800000070023F0E80256083C85EA010586EAD4
:10199000010685FA47F5A3FA87F586FA47F6A5FA10
:1019A00087F68EB9EED1F0BC01F0FF0102F007021C
:1019B00032B110F8013B013A83EA010313B1F8D1C7
:1019C0000020704701387047002D06BF35460338A8
:1019D000073815F0010F07D1013015F4807F02BFE1
:1019E000013015F4C03F0130F0BC0138704700BF32
:1019F0002DE9F041144641B30AB306460D4600F006
:101A000013FA8442074602D8B4EB500F13D821468C
:101A10003046FFF73BFE804650B1BC422246294685
:101A200028BF3A46FFF7D2F829463046FFF7AEFE08
:101A30004046BDE8F081A8464046BDE8F081A0469A
:101A4000FFF7A4FE4046BDE8F081BDE8F041114635
:101A5000FFF71CBE2DE9F84F92461F460A698B68B6
:101A6000DDF828909A42B8BF1A46CAF8002091F8CB
:101A700043300C46064613B10132CAF800202268F2
:101A800091065FD5DAF800300233CAF800302268D8
:101A900012F0060F11461DD1E1689942D8BF1146D8
:101AA00018DD4FF0000804F1190B05E0E568DAF8DD
:101AB0000030ED1A45450CDD01235A4639463046C3
:101AC000C847013008F10108F0D14FF0FF30BDE800
:101AD000F88F216894F84330003B18BF01238A0631
:101AE0000AD5E1185A1C302081F84300224494F8AA
:101AF000451082F84310023304F143023946304660
:101B0000C8470130E1D02368DAF80050216903F0BA
:101B10000603042BD4E902201BD08A4220DD4FF0BB
:101B20000008521A90441A34002501E0454517DA9E
:101B30000123224639463046C847013005F10105E8
:101B4000F4D1C2E712F0060F0DD0003B18BF0123FD
:101B5000D2E7401B8A4220EAE078E2DC0028E2DC9F
:101B60000020BDE8F88FE168DAF800309942D8BF6C
:101B7000114696DCAEE700BF2DE9F047174684B06A
:101B80000A7E0C9D0C460646984601F1430C002A3D
:101B900035D0A2F15803D9B2202969D8202B67D8B3
:101BA000DFE813F0E6006600660066006600660087
:101BB00066006600660066006600AC0070006600A5
:101BC00066006600660070006600660066006600DB
:101BD00021008300C60066006600B6006600830030
:101BE00066006600EC002B6822686169181D286099
:101BF00010061B6802D4520600F1E0801960002331
:101C0000E1462361CDF800803B4603AA21463046D9
:101C1000FFF720FF013020D023694A46394630467D
:101C2000C047013019D02368E068DDF80C909B07AD
:101C300018D5484516DD002504F1190A04E0E068CE
:101C4000A0EB0903AB420DDD012352463946304675
:101C5000C047013005F10105F1D14FF0FF3004B06C
:101C6000BDE8F0874845B8BF484604B0BDE8F087F6
:101C700084F84220012004F142090023206184F805
:101C80004330BFE72A682368111D1806296002D473
:101C9000590600F195801068014600286268C0F27C
:101CA000938054484FF00A0E15E020682B6810F01E
:101CB000800F53F8041B02D1400648BF89B26F2A37
:101CC0004C482B6014BF4FF00A0E4FF0080E002353
:101CD000626884F84330002AA26051DB236823F055
:101CE0000403236000294BD1002A7BD1E146BEF1D9
:101CF000080F56D0ACEB0903236183E72B681A6801
:101D000004332B6004F1420984F842200120B4E737
:101D10002B686268191D2960D3F80090002148469D
:101D2000FFF716FE002863D0A0EB09006060A4E76F
:101D3000236843F02003236078222F4884F845204D
:101D40002A6813F0800F52F8041B03D113F0400FE0
:101D500018BF89B22A60DA0744BF43F0200323602A
:101D600019B9236823F0200323604FF0100EAEE76B
:101D7000582384F845301F482368E1E72368DBE7F0
:101D80007546E146B1FBF5F305FB131A0A46AA4274
:101D900010F80A1009F8011D1946F3D2BEF1080F18
:101DA000A8D12368DD07A5D5626823699A42A1DC22
:101DB000302309F8013C09F1FF399BE719801EE740
:101DC000B2F90010084668E72D20002AA26084F8C6
:101DD000430002DB23F0040323600A25054849423F
:101DE000AE46CEE7037884F8423004F142097EE73C
:101DF000606842E7E8CD0008FCCD0008704700BFEE
:101E0000704700BF38B5074D0022044608462A60D7
:101E100001F068FA431C00D038BD2B68002BFBD0C2
:101E2000236038BD3802002051F8043C181F002BF5
:101E3000BCBF0B58C0187047D458C4500433C418E2
:101E40008C42F9D37047036004308842FBD370475B
:101E50000C48854600F03CF90B480C490C4A00231D
:101E6000FFF7EDFF0B480C490023FFF7EEFF0B488F
:101E70000B490023FFF7E9FFFEF79EFC00F0FAF89C
:101E8000FEE700000000032008000020A40000205E
:101E9000E8CF0008D8000020E8150020E401032066
:101EA000670A0320FEE784B04FF0B043DA6C42F0DB
:101EB0000402DA64DA6C02F004020392039ADA6C28
:101EC00042F00102DA64DA6C02F001020292029A34
:101ED000DA6C42F00202DA64DB6C03F00203019375
:101EE000019B04B07047000008B50348034B036032
:101EF00005F066FC08BD00BF5C040020000C005823
:101F000000B585B04FF0B0439A6C42F004029A6479
:101F10009A6C02F004020392039A9A6C42F0010256
:101F20009A649A6C02F001020292029A9A6C42F050
:101F300002029A649B6C03F002030193019B00224E
:101F40000F210E2004F0A6FF0E2004F0B3FF0022A4
:101F50000F213A2004F09EFF3A2004F0ABFF05B0B9
:101F60005DF804FB38B50B4C0B4B23600025656016
:101F70000F23A36047F6FF73E3602561A561E56168
:101F80006561204606F00AFD2A462946204606F0ED
:101F90005BFD38BD3C0200200028004008B5044825
:101FA000044B03600023436006F086FC08BD00BFBD
:101FB000600200200010005830B59BB0482200217C
:101FC00008A8FEF7A9FC0024019402940394049449
:101FD00005940694079405F04DFC4FF0B042D2F8FA
:101FE000903023F01803C2F8903002F58062136835
:101FF00023F4C06343F400731360136803F4C063F5
:102000000093009B472308934FF4803309930125E5
:102010000A954FF480730B93129540230C931394FD
:1020200008A805F02DFD6F2301930223029303946A
:102030000494059406940794294601A806F0ACF888
:102040001BB030BD00B595B0502200216846FEF7A8
:1020500063FC4FF4405300934FF4804311930223E9
:10206000129310231393684606F0ADFA15B05DF88D
:1020700004FB000010B504F05BFE00F0ABFAFFF7C4
:102080009BFFFFF7DFFFFFF72FFFFFF70CFFFFF7C7
:1020900037FFFFF767FFFFF781FF01F035FB04F023
:1020A000B3F900F0B3FA04F065FE044600F0C4FA98
:1020B00004F060FE001B0028F8DD013404F08AFB08
:1020C000014805F0D1FBF3E7C0060020704700008F
:1020D000164B00219960D3F8882042F47002C3F8AF
:1020E00088204FF0B0431A6842F001021A604FF4A2
:1020F000E0229A601868A2F1A262A2F205120240E0
:102100001A60D3F8942022F00502C3F89420D3F883
:10211000982022F00102C3F89820054ADA601A617B
:102120001A6822F480221A609961704700ED00E07D
:102130000010042200B583B04FF0B0431A6D42F492
:1021400000221A651B6D03F400230193019B0022FA
:1021500011462E2004F09EFE2E2004F0ABFE03B0AC
:102160005DF804FB0268124B9A4200D0704700B53C
:1021700083B04FF0B0431A6D42F480121A651B6DA4
:1021800003F480130193019B002211462C2004F0DC
:1021900081FE2C2004F08EFE002211462D2004F03A
:1021A00079FE2D2004F086FE03B05DF804FB00BF2D
:1021B000000C005810B596B004465022002102A829
:1021C000FEF7AAFB22680F4B9A4201D016B010BD51
:1021D0004FF4007302934FF08053109302A806F05F
:1021E000F2F958B94FF0B0431A6D42F480221A65E3
:1021F0001B6D03F480230193019BE7E7FFF766FF64
:10220000F0E700BF0010005810B596B00446502209
:10221000002102A8FEF780FB2268174B9A4201D0EA
:1022200016B010BD4FF4006302934FF48073129305
:1022300002A806F0C8F9E0B94FF0B043D3F89020F7
:1022400042F40042C3F890209A6D42F480629A658D
:102250009B6D03F480630193019B002211460320D0
:1022600004F018FE032004F025FE204606F082FC50
:10227000D6E7FFF72BFFDFE7002800407047FEE7B7
:10228000FEE7FEE7FEE770477047704708B504F0C9
:1022900065FD08BD08B500F061FE08BD08B502483F
:1022A00004F0CBFF08BD00BFD402002008B50248EF
:1022B00007F04CFE08BD00BF3403002008B50248FB
:1022C00007F044FE08BD00BFC803002008B501F0B8
:1022D00095FF08BD08B501F025FF08BD08B505F05C
:1022E00043FA08BD08B5024804F0A7FF08BD00BFC7
:1022F0007402002008B5102005F026FA08BD08B5C4
:10230000012005F021FA08BD08B5022005F01CFAED
:1023100008BD000082B04FF0B0431A6D42F4801245
:102320001A651B6D03F480130193019B0A4B3F2236
:102330009A609A615A6842F47C125A605A6942F46F
:102340007C125A615A6842F03F025A605A6942F060
:102350003F025A6102B07047000C0058054BCA2278
:102360005A6253225A629A6822F007029A60FF2248
:102370005A62704700280040704708B54FF0B043DC
:10238000D3F8943013F0806F18D04FF0B043D3F8E7
:10239000943013F0805F11D105F06CFA05F06AFA01
:1023A0004FF0B043D3F8902042F48032C3F890202D
:1023B000D3F8902022F48032C3F8902008BD08B5ED
:1023C000FFF7DBFFFFF7A6FF08BD000008B5002000
:1023D00009F0A2FC68B181794FF0B042054BC2F818
:1023E0009C30D2F89C3023F47C5343EA0123C2F89A
:1023F0009C3008BDFECAFECA08B54FF0B0429368D3
:1024000043F40043936008F00DFF054AD2F8803092
:1024100023F0070343F00403C2F8803008BD00BF77
:102420000004005808B5034B01220349002000F0C6
:1024300007FE08BDA12400089C05002008B511492D
:102440001148FEF79DFC78B110490F48FEF798FC43
:1024500080B10F490C48FEF793FC50B90D480E4B64
:10246000036004F04CFF04E00A480C4B036004F0E6
:1024700046FF08BD07484FF0B053036004F03FFF2C
:10248000F7E700BF2CC900089C04002030C90008F1
:1024900034C90008A405002001000016040000163D
:1024A00008B50F4B1B88FF2B08D80E4A12780D2A4F
:1024B0000BD0581C0A4908800B49CA540B4B012207
:1024C0000849002000F0BCFD08BDFFF7B7FF002160
:1024D000034B19804FF480720348FEF71DFAEDE7B5
:1024E000980400209C0500209C040020A1240008E2
:1024F00000B589B009F078F80E4A0021202009F0D3
:1025000045F80D4B00930D4B019369460C4809F0BB
:102510006DFB0C4B02930C4B03930C4B049340F25A
:102520003C53059302A809F033F909F059F809B0B2
:102530005DF804FB11BC0008FC03032079230008AC
:10254000B1250008E4010320F00203200805032060
:1025500000B585B000230093019302930393436871
:102560005B7B23B1012B1ED005B05DF804FB00F0AE
:102570004DF90F238DF800307F238DF802300B4A80
:1025800013681B0CADF80C301368C3F30B03ADF8E4
:102590000E30684609F072F901F0FCFA00210120C2
:1025A00008F04AFEE0E700230370DDE7002004E0C6
:1025B0004368B3F80B30B3F5124F00D0704710B535
:1025C00084B00446684609F067F92046FFF7C0FF6B
:1025D00004B010BD08B5044B4FF400421A61FFF778
:1025E000EEFEFFF7F3FE08BD00400058034AD2F8A4
:1025F000903043F05003C2F8903070470008005804
:1026000008B5FFF7F3FFFFF7A9FE08BD08B5FFF710
:10261000F7FFFFF7F1FE0749002000F00BFB00F089
:10262000E3F80121084608F007FEFFF7FBFEFFF77D
:102630005FFF08BD3C02002008B54FF0FF3008F0F6
:102640007DFE08BD08B508F00DFE08BD08B50021E7
:10265000202008F02BFE08BD08B5022008F054FE2B
:1026600008BD08B5022008F065FF08BD08B50228BE
:1026700009D0102804D0012804D101F0BBFB01E0EF
:1026800001F0B4FB08BD01F0B6FBFBE770B58CB000
:1026900000230793089309930A930B931C461D4646
:1026A0001E4606E04D4A02EBC302928815430133F1
:1026B000DBB2252B1ED8494A02EBC3029279002ACD
:1026C000F5D0464A52F8332045488242EAD000F518
:1026D0008060824208D0B2F1904FE8D13F4A02EBCD
:1026E000C30292881643E2E73C4A02EBC302928897
:1026F0001443DCE70123089303230A9326B93DBB67
:10270000002C48D10CB070BD07964FF0B043DA6C86
:1027100042F00102DA64DA6C02F001020292029ADB
:10272000D3F84C2142F00102C3F84C21D3F84C31CC
:1027300003F001030193019B07A94FF0904004F0BF
:102740001DFF002231464FF0904004F0F8FFD6E71D
:1027500007954FF0B043DA6C42F00202DA64DA6CAB
:1027600002F002020492049AD3F84C2142F00202D1
:10277000C3F84C21D3F84C3103F002030393039BBD
:10278000174E07A9304604F0F9FE002229463046CC
:1027900004F0D5FFB4E707944FF0B043DA6C42F091
:1027A0000402DA64DA6C02F004020692069AD3F8A4
:1027B0004C2142F00402C3F84C21D3F84C3103F011
:1027C00004030593059B074D07A9284604F0D6FE90
:1027D00000222146284604F0B2FF93E710CE0008FD
:1027E000000400480008004808B504F0DDFA04F0D1
:1027F000E3FA054AD2F8903043F48033C2F89030BF
:10280000FFF744FF08BD00BF0008005810B588B0AE
:102810000DF1040C094C0FCCACE80F0094E8070054
:10282000ACE803002CF8022B120C8CF8002008F006
:10283000E1FF01A809F013F808B010BD38C700087F
:10284000064A936A9BB2906A80B203E0034B9A6A8D
:10285000034690B28342F9D1704700BF0028004080
:1028600001EB41020D4B03EBC2035B7DDBB2062B98
:1028700005D003EB430C094A02EBCC021075074A62
:1028800000EB400C02EBCC0C8CF815308CF81410DB
:1028900001EB410102EBC10250757047BC050020FD
:1028A000174B1B78DBB28B421DD0164B01EB41025C
:1028B00003EBC202127D5FFA82FC02EB420203EBE1
:1028C000C202507500EB400203EBC202517500EBEF
:1028D000400203EBC20282F814C001EB410103EB9A
:1028E000C10318757047074B00EB400203EBC202AF
:1028F000517501EB410103EBC1031875704700BF2F
:10290000B9050020BC05002010B4234B1B78DBB2B6
:1029100083422CD0214C00EB400204EBC20292F81F
:1029200014C0537DDBB2527DD2B20CEB4C0C04EBE5
:10293000CC046275062B0BD0184A00EB400402EB66
:10294000C404247DE4B203EB430302EBC302147519
:1029500000EB4000114B03EBC00301221A730E4B36
:102960001B78DBB2062B10D05DF8044B70470A4C85
:102970002378DBB20A4A137000EB4002074B03EBEB
:10298000C2035B7DDBB22370E2E70029ECD1054B8B
:102990004FF0FF321A60E7E7B9050020BC050020C0
:1029A000B8050020B405002008B5104B1B68B3F132
:1029B000FF3F02D1002080B208BDFFF741FF0B4B63
:1029C0001B6883420AD3094B1B681B1A084A1078FC
:1029D00003FB00F0074B1B78D840ECE7064B1A8846
:1029E000121A024B1B681344F0E700BFB405002025
:1029F000B0050020B1050020AE05002070B50446EA
:102A0000314B1B78DBB2062B13D12F4A1378DBB284
:102A10002E490B70107000EB40042D4B03EBC404E7
:102A2000062363752B4B4FF0FF321A6000252846B2
:102A300070BDFFF7B9FF0546254B04EB440203EBDD
:102A4000C20291680144916004EB440203EBC202AC
:102A500090681D4A127802EB420203EBC2039B68A6
:102A6000834225D8184B1B78D9B203EB4303184A8D
:102A700002EBC3035B7DDBB20CE0154A01EB4101C5
:102A800002EBC1014B7DD9B203EB430302EBC3025E
:102A9000537DDBB2062B07D003EB43030C4A02EB5A
:102AA000C3039B688342E8D92046FFF7D9FEBEE7FF
:102AB000054E31782046FFF7F3FE3378DBB2034A48
:102AC00013703470B3E700BFB9050020B8050020CB
:102AD000BC050020B405002010B548B30446012809
:102AE0002ED9013CA4B2194B1B68DA6812F0040F0E
:102AF000F9D0DA68D2B262F49062DA60144B4FF423
:102B00000022DA60032004F0FFF9124A53696FF3E0
:102B10000F031C435461FFF793FE0F4B18600B4BE0
:102B20001A68936843F480639360AFF3008010BD2C
:102B3000FFF786FE084B1860032004F0D7F9F6E78C
:102B4000064B1B78012BCCD1CDE700BF3C02002007
:102B50000008005800280040B4050020B1050020FE
:102B600038B52E4B9B6813F4806F05D02C4B1B6837
:102B7000DB6813F0040FF9D1294B1A68936823F42A
:102B800080639360274B1B78DCB203EB4303264A38
:102B900002EBC3039D68FFF707FF8446A84204D9F0
:102BA000224B01221A70002024E0214B1B8810FACE
:102BB00083F3AB4206D21E4B188880B21B4B002217
:102BC0001A7017E0A8B2A0EB0C0080B2174B0122DC
:102BD0001A700FE004EB4404134A02EBC404A26829
:102BE000A2EB0C02A26003EB43030F4A02EBC30308
:102BF0005C7DE4B2062C0ED0234604EB44010A4A65
:102C000002EBC10292689445E4D9074A02EBC10481
:102C10000022A260E7E7FFF75FFF38BD0028004011
:102C20003C020020B9050020BC050020B2050020B0
:102C3000AC05002010B5484B1B68CA225A625322CB
:102C40005A62464B9A6842F020029A609A6802F0F3
:102C50000702C2F10402D2B241490A701B6903F4AF
:102C6000FE034FF4FE0191FAA1F1002931D0B1FA2F
:102C700081F1CB40DBB20133DBB23A490B7037490B
:102C80000969C1F30E010131374C2180013901FB83
:102C900003F3A3F5A073D3404FF6FE7293421AD903
:102CA000324B4FF6FF721A80314B1A6842F4002201
:102CB0001A60D3F8802042F40022C3F88020002854
:102CC0003FD12C4B01221A702B4B4FF0FF321A6070
:102CD0000EE02021CDE79BB2244A1380E4E700EB0D
:102CE0004002264B03EBC20300221A730130C0B22C
:102CF0000528F4D9224B06221A70174C22689368D3
:102D000023F480639360D368DBB263F49063D36091
:102D1000174B4FF40022DA60032004F0F5F8226824
:102D2000936843F4804393600B4B1B68FF225A6205
:102D300000220321084604F0ADF8032004F0BAF89D
:102D400010BD054B1B68DB6813F4806FECD00320CB
:102D500004F0CCF8E8E700BF3C0200200028004067
:102D6000B1050020B0050020AE050020AC05002014
:102D700000080058B2050020B4050020BC05002062
:102D8000B9050020F0B5EFF3108572B64FF0000CD6
:102D9000BCF1050F0CD80CEB4C0E154C04EBCE0E11
:102DA0009EF80C4024B10CF1010C5FFA8CFCEFE7AB
:102DB000BCF1060F17D00E4E4FEA4C040CEB4C0E34
:102DC00006EBCE0E01278EF80C7085F31088CEF836
:102DD00010008EF80D2004EB0C02D200B35081F8E5
:102DE00000C00020F0BD85F310880120FAE700BF85
:102DF000BC05002038B50446EFF3108572B60320F9
:102E000004F05CF8254B1B68CA225A6253225A62AE
:102E100004EB4402224B03EBC2031B7BDBB2022B0D
:102E200009D01E4B1B68FF225A62032004F042F8AF
:102E300085F3108838BD00212046FFF765FD194B4A
:102E40001B78DBB2062B07D0174A1278D2B29A420F
:102E5000E7D0FFF785FEE4E7144B9B6813F4806F1F
:102E600005D00E4B1B68DB6813F0040FF9D10B4B38
:102E70001A68936823F480639360D36813F0040F97
:102E8000FBD0D368DBB263F49063D360084B4FF49C
:102E90000022DA60032004F037F8C2E73C02002089
:102EA000BC050020B9050020B8050020002800401E
:102EB0000008005870B504460D4600EB4002214B57
:102EC00003EBC2031B7BDBB2022B35D0EFF3108682
:102ED00072B6032003F0F2FF1B4B1B68CA225A6232
:102EE00053225A6204EB4402164B03EBC203022244
:102EF0001A739D605D602046FFF780FD134B1B78C1
:102F0000DBB2134A1278D2B29A4218D10D4B04EBBD
:102F1000440203EBC2029268121A04EB440403EB6E
:102F2000C4039A60084B1B68FF225A62032003F017
:102F3000C1FF86F3108870BDFFF75CFFC6E7FFF79F
:102F40000FFEEFE7BC0500203C020020B905002081
:102F5000B805002008B5904708BD0000F8B5EFF3AC
:102F6000108572B6314B1B68CA225A6253225A62CC
:102F70009A6822F480629A602D4A1478E4B204EBD5
:102F80004402D1002B4A0A44127BD2B2022A13D047
:102F9000DA6812F0040FFBD0DA68D2B262F4906201
:102FA000DA60254B4FF40022DA6085F310881F4B5E
:102FB0001B68FF225A62F8BD1E4A04EB4401CB0095
:102FC000D118D7580E691D4B1B7853B34B7BDBB21E
:102FD000012B10D085F310882046FFF70BFF134B11
:102FE0001B68CA225A6253225A623A462146304628
:102FF000FFF7B0FFDBE701212046FFF785FC85F3F3
:10300000108804EB4403DA000A4B13445968204645
:10301000FFF750FF054B1B68CA225A6253225A62BF
:10302000E3E7FFF79DFD85F31088C0E73C02002031
:10303000B9050020BC05002000080058B20500209A
:1030400008B548B102280ED1074803600748084B6D
:10305000036007F06BFC06E0064803600648074B78
:10306000036007F063FC08BD50060020C803002081
:103070000080004058060020340300200038014042
:1030800008B50368084A934208D002F538429342D3
:1030900003D1064B1B6803B1984708BD044B1B685E
:1030A000002BFAD09847F8E700800040580600202F
:1030B0005006002008B50368084A934208D002F57C
:1030C0003842934203D1064B1B6803B1984708BDB1
:1030D000044B1B68002BFAD09847F8E700800040AB
:1030E000540600204C060020244B4FF480621A61E5
:1030F00001E000233BB1214BD3F88C20204B9A42B6
:10310000F7D00123F6E74FF0B0439B6803F00C03C0
:10311000042B04D0194B4FF48062DA6070474FF0F3
:10312000B042136843F48033136002F580421368A1
:1031300023F0070343F001031360124B1A6802F0F7
:103140000702012AF9D100E03BB94FF0B0431B68F8
:1031500013F40033F8D01346F6E74FF0B04293680B
:1031600023F0030343F0020393604FF0B0439B68E6
:1031700003F00C03082BF8D1CCE700BF0014005873
:1031800000040080004000584FF0B042136843F440
:103190008073136000E03BB94FF0B0431B6813F439
:1031A0008063F8D00123F6E74FF0B042936823F034
:1031B000030343F001039360536A23F00303536254
:1031C0004FF0B0439B6803F00C03042BF8D1704719
:1031D00008B501E000233BB1184BD3F88C20184B05
:1031E0009A42F7D00123F6E7144BD3F89020144B02
:1031F0009A420BD0FFF7C8FF124A136823F0070367
:1032000013600E4B4FF48062DA6008BD0E4BD3F8AA
:10321000883013F4004F05D10B4BD3F8883013F4EA
:10322000806FEED0054B4FF480621A61FFF7ACFF60
:10323000044A136823F007031360E2E70014005800
:1032400000040080004000580004005808B503F056
:103250009DFDFFF7BDFF084A1F239361136823F00C
:10326000070343F003031360044A136943F00403A4
:10327000136130BF08BD00BF0004005800ED00E03E
:1032800008B503F083FDFFF7A3FF074A136823F097
:10329000070343F002031360044A136943F0040375
:1032A000136130BF08BD00BF0004005800ED00E00E
:1032B00008B503F06BFD034A136923F0040313619F
:1032C00030BF08BD00ED00E008B503F066FD08BDA5
:1032D00008B5FFF709FF03F060FD08BD08B503F06E
:1032E0005CFD08BD10B503460C4A0D490D48006849
:1032F00040B10C4800680344521A934206D8094A68
:10330000136010BD0748084C0460F2E7FDF78CFB22
:103310000C2303604FF0FF30F3E700BF00000320F1
:10332000001000005C060020E8150020F0B589B010
:103330000024039404940594069407944FF0B0433A
:10334000DA6C42F00102DA64DA6C02F001020292F5
:10335000029ADA6C42F00202DA64DA6C02F00202DB
:103360000192019ADA6C42F01002DA64DB6C03F02D
:1033700010030093009B224606214FF0904004F07A
:10338000DEF9324E22464FF40871304604F0D7F988
:103390002F4F01221021384604F0D1F90623039360
:1033A000012504950594069403A94FF0904004F07C
:1033B000E5F84FF40873039303A9304604F0DEF8F0
:1033C0001023039303A9384604F0D8F81C23039371
:1033D00004940227059703A9304604F0CFF84FF470
:1033E00080630393059503A94FF0904004F0C6F85D
:1033F000F823039303230493059403A94FF090400B
:1034000004F0BCF8039503A9304604F0B7F803951F
:10341000049705940697079503A94FF0904004F090
:10342000ADF84FF4007303930497079503A94FF089
:10343000904004F0A3F84FF480730393079503A919
:10344000304604F09BF809B0F0BD00BF000400480E
:103450000010004830B58FB00024089409940A94F5
:103460000B940C940D940DF1080C414D0FCDACE86C
:103470000F0095E803008CE803004FF0B043DA6CCE
:1034800042F40052DA64DA6C02F400520192019ABA
:103490009A6C42F001029A649B6C03F00103009362
:1034A000009B3448344B0360052343608460C46050
:1034B000802303614FF4807343614FF48063836121
:1034C0002023C3614FF40053036203F08DFD50BB12
:1034D0002A482B4B03604FF4002343600023836092
:1034E000C360012202610821416103764276062110
:1034F000C16180F820308362C36280F830204FF4CD
:103500008052426380F838301A4BC364986207F0E7
:1035100065FA58B906230A937F230B9304230C936F
:1035200000240D9406E0FEF7D1FDD1E7FEF7CEFDB5
:10353000F0E70134052C10D80EAB03EB840353F8ED
:10354000303C0893A31D099308A90C4807F08CFB95
:103550000028EED0FEF7BAFDEBE7002203210B2096
:1035600003F098FC0B2003F0A5FC0FB030BD00BFAA
:1035700054C70008600600200800024068070020C9
:103580000000045030B59FB000241A941B941C9482
:103590001D941394149415941694179418941994D4
:1035A0001094119412943422214603A8FDF7B4F923
:1035B0004FF0B0431A6E42F400621A661A6E02F4BB
:1035C00000620292029A9A6D42F001029A659B6D26
:1035D00003F001030193019B48484FF080430360CF
:1035E0000723436084604FF0FF33C360046184614C
:1035F00005F0C0FD18B9414805F05CFD08B1FEF7C3
:1036000065FD02231A9301231B9300221C920423BD
:103610001D931AA9394805F025FF00285AD1002327
:103620001393149315931793042213A9334805F0A9
:103630000DFE30B9082213A9304805F007FE002816
:103640004BD0FEF743FD002201211C2003F022FC99
:103650001C2003F02FFC2A482A4B03600023436000
:10366000836040F23F12C26003614361836105F0F1
:1036700051FD002839D10024109411941294204D4A
:1036800010A9284606F09AFB60231393149415940E
:103690001694179418941994042213A9284605F037
:1036A00012FE28BB00230393049305931A2206926B
:1036B00007934FF40052089209930B934FF0007256
:1036C0000C920D930F9303A90D4806F0ABFB90B934
:1036D0001FB030BDFEF7FAFCA1E70C2213A9074882
:1036E00005F0B4FD0028AED0ABE7FEF7EFFCC2E773
:1036F000FEF7ECFCD6E7FEF7E9FCE9E7D006002090
:103700001C070020002C014008B5FFF70FFEFFF753
:10371000A1FEFFF737FF0948094B0360042343600C
:103720004FF47A73836040F6FF73C36004F066F869
:1037300000B908BDFEF7CAFCFBE700BFC0060020C9
:103740000030004008B5024805F0BAFB08BD00BFD4
:10375000D006002008B5024BD86C03F06EFD08BD02
:103760006807002038B502680C4B9A4201D000204F
:1037700038BD0446D0F8545540F2545100F0FEFED6
:10378000854201D00020F3E704F1080001F08AF837
:1037900008B90120ECE70020EAE700BF50414D37AF
:1037A00038B505461048FFF7DDFF04460F48FFF720
:1037B000D9FF54B9B8B174B10B4B5B680B4A52686E
:1037C0009B1A002B05DD084906E00028F3D10649C5
:1037D00002E0064900E0054940F24C520831284613
:1037E000FDF7F4F9012038BD00E0070800F00708F4
:1037F000F0B585B004464148FFF7B4FF05464048A0
:10380000FFF7B0FF06464FF0FF330393002300930A
:1038100001930293204601F045F800286AD11DB9B2
:103820001EB9364D012714E066B1002D36D0334B5A
:103830005B68334A52689B1A002B01DD2F4B02E074
:103840002F4B00E02D4B5F6801372C4A934227D065
:103850002A4D2C4E4FF4AB62FF213046FDF75CF849
:10386000294B3360776040F24C52214606F1080044
:10387000FDF7ACF940F25451304600F07FFEC6F837
:1038800054050223009305F178431B0B0193012398
:10389000029303F053FD28B100202CE0184BD2E72F
:1038A000174DD6E703A9684603F02EFE064608B971
:1038B000002403E003F05AFD16E00134AA2C0CD8D2
:1038C000104B03EBC403D3E9002305EBC401012033
:1038D00003F0A0FD06460028EFD003F047FD1EB917
:1038E000039BB3F1FF3F01D0002004E02846FFF71F
:1038F00039FF00E0002005B0F0BD00BF00E0070880
:1039000000F00708D007002050414D3708B50122CC
:103910001021024803F013FF08BD00BF001000484B
:1039200008B50021012007F0C1FC08BD08B501223F
:103930001021084803F003FF074B93F87430052B60
:1039400000D108BD08F043FA034B002283F874202D
:10395000F7E700BF00100048300D002000B583B02D
:10396000054B0093054B01936946054808F028F87C
:1039700003B05DF804FB00BF280003209F39000856
:103980008539000810B504464068083008F082FE0A
:1039900010B10123237010BD00232370FBE708B58D
:1039A00028B1012806D11F2007F0A2FC02E01F2049
:1039B00007F090FC08BD000008B50F4BD3F8802538
:1039C000B2F1FF3F10D0D3F884350C480270C2F337
:1039D000072242708370C3F30722C270C3F3074209
:1039E00002711B0E437108BD002008F095F90028F4
:1039F000F9D10348F7E700BF0070FF1FA80D0020B2
:103A000088CF000830B589B00024ADF8184008F020
:103A100074FDFFF7D1FF054602460621204608F057
:103A2000ECFC6A792E4B1A722A795A72EA789A72E9
:103A3000AA78DA726A781A732A785A73294A102196
:103A4000182008F0DAFC284A1021082008F0D5FCDC
:103A50001821012008F001FD08F0A0FB0DF11A0368
:103A6000019307AB00930DF11E030C2221460120A8
:103A700008F0B7FA1D4B00930C232246BDF81C102A
:103A8000BDF81E0008F05CFC06AB00930223224642
:103A9000BDF81A10BDF81E0008F052FC01221146B4
:103AA000204608F07CFD124D0320287008F00AFA29
:103AB0006C700823EB7010212971AC70049403948E
:103AC000012202920191009323462146204608F0EC
:103AD0001FFAAB780BB909B030BD08F0EEFAFAE77F
:103AE0005C00002078CF000868CF000838C90008C3
:103AF000300D002070B588B00446012828D04FF45E
:103B00007A664FF4C8651D4B93F87500FFF772F99C
:103B1000022C22D0194B83F87440002006900590A7
:103B200003F10F0204929B7B0393154B02930D2329
:103B30000193009003463246294608F069F911497D
:103B40000E2008F08DFA08B9012C10D008B070BD15
:103B50000D4B1D880D4B1E88D5E7084B93F874302C
:103B6000013BDBB2012BD5D808F031F9D2E7084987
:103B7000024B93F87500FFF79DF9E7E7300D002041
:103B800058CF00085C0000202E0D00202C0D0020D6
:103B900046E0010030B593B04322002101A8FCF7B4
:103BA000BBFE4423ADF818300823ADF81A304FF4AB
:103BB000A863ADF81C3002248DF81E4001258DF855
:103BC0001F5012238DF8203029238DF821309C239B
:103BD000ADF822304FF4FA73ADF824304FF0FF33D4
:103BE0000A934FF4A473ADF82C308DF82E50202397
:103BF0008DF83130D8238DF8323006238DF83330EC
:103C000003238DF8353040F27263ADF836300D2362
:103C10008DF83C3004238DF83E30FFF79FFE294697
:103C2000204607F009FB1E4A0021204607F0AEFCA3
:103C300001A807F005FE78BBFFF7E4FE08F012FDCF
:103C4000184D002485F874404FF6FF73AB81164A77
:103C50002146012007F09AFC062008F027FC00F01E
:103C6000DBF8124B224605F175012046FFF78AF872
:103C70000F4B224605F176012046FFF783F8EC73DF
:103C8000AC730C4B80221A800B4BA0221A800120AF
:103C9000FFF730FF13B030BDFEF718FACCE700BFD6
:103CA000E5B90008300D00202D3900082139000841
:103CB0000D3900082E0D00202C0D002030B583B0EA
:103CC000044643783E2B21D0FF2B4FD0052B0FD13C
:103CD0008288434B9B899A420DD00120FFF70AFF4F
:103CE0004048012303703E4B9B89438000F095F8C8
:103CF000012003B030BD3A4D0024AC8121464FF67F
:103D0000FF7000F01DF985F87440E6E7C378012BD9
:103D10000AD00C2BECD10DF106020DF10701304B4E
:103D2000988908F00AFCE3E72D4D95F87500FFF738
:103D300061F895F87430042B14D0294B052283F8D0
:103D40007420B4F80530264DAB810121B4F805008C
:103D500000F0F6F8234800230370AB89438000F09D
:103D60005CF8C5E7062285F87420EAE7B0F803306E
:103D700040F20942934227D013D940F60E429342B3
:103D800028D041F604029342B2D1002210211648F5
:103D900003F0D5FC0A21124B93F87600FFF78AF85E
:103DA000A6E740F20242934208D040F20542934215
:103DB0009ED10B4B988908F0A1F999E70021084B97
:103DC000988908F0E5F893E70121054B988908F0F8
:103DD000BCF98DE7024B988908F0E7FA88E700BF45
:103DE000300D0020280D00200010004808B500F01C
:103DF00015F808BD7047704708B50021022007F08C
:103E000055FA08BD08B5012007F07EFA08BD08B5CF
:103E1000012007F08FFB08BD704770477047000016
:103E200008B54378FF2B01D0002008BDB0F803206F
:103E300040F601439A4201D00020F6E7B0F807208F
:103E4000064B9B8801339A4201D00020EDE7B0F881
:103E50000B100D3002F02EFF0120E6E76C00002071
:103E60002DE9F0478EB0304808F00AFC2F4B06AC25
:103E70000FCB84E80F000AAD85E80F002C4E0096AA
:103E8000092301222946022008F0AAF9294B0FCB69
:103E900084E80F0085E80F00334633F8020B0593E2
:103EA000012704974FF00A09CDF80C9002974FF0C4
:103EB0000008CDF804804FF0120ACDF800A01423BA
:103EC0002A46022108F0DCF91B4B0FCB84E80F00D7
:103ED00085E80F00334633F8040B05930497CDF8BB
:103EE0000C900297CDF804800C230093DC232A4623
:103EF000022108F0C5F9114B0FCB84E80F0085E8CB
:103F00000F0036F8060B05960497CDF80C90029733
:103F1000CDF80480CDF800A0DC232A46022108F069
:103F2000AFF90EB0BDE8F087213E00086CC700086D
:103F30006C00002048C900085CC9000870C900086E
:103F40000A4609B94FF6FF70014B18819A72704703
:103F50006C000020014B987A704700BF6C00002075
:103F6000074B9B7A03B9704710B582B0044C0090A0
:103F7000CBB200226188208808F0E2F902B010BDBF
:103F80006C000020074B9B7A03B9704710B582B0D4
:103F9000044C0090CBB20022E188208808F0D0F9D0
:103FA00002B010BD6C00002010B5EFF3108272B6A5
:103FB000064C636843F40023636082F31088044B6B
:103FC0001B6898474FF40023A36010BD000C0058F5
:103FD000B00D002082B04FF0B043D3F8502142F42E
:103FE0008012C3F85021D3F8503103F480130193A9
:103FF000019B0A4B1A6A42F400721A62D3F8D42069
:1040000042F40072C3F8D42040BF20BF044AD368F2
:1040100043F40043D36002B0704700BF000800586B
:104020000004005800B583B04FF0B0431A6D42F45D
:1040300080121A651B6D03F480130193019B094BD9
:104040001A6842F001021A601A6842F480321A605B
:104050002C2002F02FFF2D2002F02CFF03B05DF882
:1040600004FB00BF000C0058EFF3108172B6044A45
:10407000536823F00103536081F31088704700BF39
:10408000000C0058024B4FF480329A60704700BF1A
:10409000000C005808B5EFF3108172B6044A53685B
:1040A00043F40013536081F3108807F017FB08BD39
:1040B000000C005808B507F0F9FA024B01229A608B
:1040C00008BD00BF000C0058EFF3108172B6044A1F
:1040D000536823F00203536081F31088704700BFD8
:1040E000000C0058064B4FF400329A60EFF3108139
:1040F00072B65A6822F400325A6081F31088704711
:10410000000C005808B5EFF3108172B6044A5368EA
:1041100043F40033536081F3108807F013FB08BDAC
:10412000000C005808B5144BDB6813F0020F04D1E3
:10413000114B5B6813F4003F14D00F4BDB6813F096
:10414000080F04D10C4B5B6813F4002F0DD00A4B01
:10415000DB6813F0200F04D1074B5B6813F4001FDA
:1041600006D008BDFFF7CEFFFBE7FFF71DFFF8E71E
:10417000FFF790FFF5E700BF000C005808B507F007
:10418000EFFA024B02229A6008BD00BF000C0058F3
:1041900008B50C4BDB6813F0080F05D18047094BBD
:1041A0004FF400229A6008BD074B1860EFF31081AE
:1041B00072B6044A536823F40023536081F31088D5
:1041C000F1E700BF000C0058B00D0020EFF31081A4
:1041D00072B6044A536823F00803536081F31088D1
:1041E000704700BF000C005808B507F015FB024BE4
:1041F00008229A6008BD00BF000C005808B5144B97
:10420000DB6913F0020F0AD1114BDB6913F0010FC8
:104210000DD10F4BDB6913F0080F10D108BD0C4B0B
:104220005B6813F0020FEFD1FFF7A8FFF6E7084B2A
:104230005B6813F0010FECD1FFF73CFFEEE7044B96
:104240005B6813F0080FE9D1FFF7CEFFE6E700BF88
:10425000000C0058B0F5FA7F40F28B80B0F57A7F01
:104260000CD8C82303FB00F0A0F5C330A0384E4B98
:1042700083FB00C3C017C0EB63107BE040F2DC534C
:1042800098420FD84FF4967303FB00F0A0F59220EC
:10429000A0F57870444B83FB00C3C017C0EB6310DC
:1042A000C83067E040F6C413984210D84FF4FA7350
:1042B00003FB00F0A0F53720A0F5D8703A4B83FB44
:1042C00000C3C017C0EBA31000F5FA7052E0B0F5C0
:1042D0007A6F10D84FF4487303FB00F0A0F5F41088
:1042E000A0F59060314B83FB00C3C017C0EB631097
:1042F00000F57A703EE041F27073984210D84FF4A6
:104300002F7303FB00F0A0F52A10A0F56650264B92
:1043100083FB00C3C017C0EBE31000F5E16029E0A8
:10432000B0F5FA5F10D84FF4167303FB00F0A0F558
:104330005B10A0F53A501C4B83FB00C3C017C0EBC9
:10434000E31000F6C41015E042F21073984221D831
:104350004FF4FA7300FB03F3A3F57413A3F5106392
:10436000114880FB03C0DB17C3EBE01303F61C40CE
:1043700000E00020A0EBA10002B96438022A0CD0B2
:10438000032A0CD000280CDBB0F5616F0ADD4FF476
:10439000616007E04FF46160ECE7C838F0E7323065
:1043A000F0E7002000B27047D34D6210F119760596
:1043B000012919D90388934218D801238B421BD2B3
:1043C00000B530F813E003F1004C0CF1FF3C30F87D
:1043D0001CC0E6450CD996450CD80133DBB28B42A4
:1043E000EFD301205DF804FB0020704700207047E8
:1043F0000020F7E70020F5E7012070478446038896
:1044000093420DD20020431C8B4206D23CF813305D
:10441000934206D20130C0B2F5E70239C8B2704704
:104420000020704770B50446049D9A4210D9AA42F4
:104430000FD2A1EB000E4FEAEE76A2EB030CAEFB1F
:104440000C01EA1A00230CFB0611FBF7BDFE204409
:1044500070BD0846FCE7B0F810C0438AACEB03031C
:104460008B4218D8437B012B17D00CF5967C8C45DA
:1044700015D913780133DBB21370028A8A4204D84B
:1044800083F0010000F00100704713F0030F0CBF30
:104490000120002070470020704702207047022052
:1044A000704700002DE9F84305460E46144698462D
:1044B0004FF4A4720021FCF72FFA0B223146284654
:1044C000FCF71EFC2C73012C28D042F21C532B82CB
:1044D0004FF4C8736B82012C23D040F21D13AB82C2
:1044E0000123EB829C421FD00822AA73012C1DD00D
:1044F0000426EE7305F11800012C19D01B4917464C
:104500005200FCF763FB05F13800012C12D018496A
:10451000B1467200FCF75AFB002621E042F6F82370
:10452000D5E74FF49173DAE71022DEE70826E0E7DB
:104530001049E4E71049EBE704F10C0006F11C0315
:10454000424635F8131035F81000FFF783FE04EBF0
:104550000611243125F811000134A742ECD80136A8
:10456000B14501D90024F8E7BDE8F883C8CF0008B9
:10457000C0CF0008A0CF000890CF000810B50446B7
:10458000084600214FF0FF320CE042F3000E0A4BC8
:104590000EEA030383EA52020CF1010CBCF1070F8F
:1045A000F3D90131814204D2635C5A404FF0000CD0
:1045B000F4E7D04310BD00BF2083B8ED40B110B583
:1045C00004464FF4A961FFF7D9FFC4F8480510BDB0
:1045D0007047000000284DD070B5044640F24C52A0
:1045E0000021FCF799F9244B23600326A6800125BE
:1045F000A57100231A46214904F10800FFF752FF74
:104600002B4600221E4904F5A870FFF74BFF02233A
:1046100000221C4904F52670FFF744FF33462A4662
:10462000194904F57870FFF73DFF2022002104F5B9
:10463000A560FCF771F9154BC4F82835A4F82C5582
:1046400041F27073A4F83035A4F834555023A4F81F
:104650003635DC23A4F83C3540F6B833A4F83E35B3
:104660004FF47A73A4F8403584F844552046FFF798
:10467000A5FF70BD704700BF4344493784C9000897
:1046800088C9000890C9000898C9000853555037D8
:10469000002858D003460168414A914255D182888A
:1046A000012A54D18279042A53D8C179012952D8D8
:1046B000008948F69F4188424FD8B3F90A1039481B
:1046C00081424CDB40F6B83081424ADC99890029AE
:1046D00049D0042949D8D989272948D9962948D8C1
:1046E000998AB32947D9FA2947D8D88A40F6B831E8
:1046F000884244D1198BB1F57A7F42D8997E01293D
:1047000041D8D87E012840D893F81CC0BCF1020FD4
:104710003DD810B55C8A2CB1B3F810E00EF1320E22
:10472000744536D9012A06D908B1002933D0042AA4
:1047300006D0002010BD5B8B002BF5D00220F9E7DE
:1047400059B30020F6E7012070470220704702208D
:1047500070470220704702207047022070470220F5
:1047600070470220704702207047022070470220E5
:1047700070470220704702207047022070470220D5
:1047800070470220704702207047022070470220C5
:1047900070470220CEE70220CCE70220CAE700BF24
:1047A0005355503748F4FFFF00285FD070B50446DA
:1047B000037B012B5CD8427B012A5BD8012B3FD0C5
:1047C000002B41D1E389B3F5816F55D1A28A40F224
:1047D0001D139A4252D142F60411238A40F6B73291
:1047E000934251D98B4251D8638A632B50D9B3F588
:1047F0007A7F4FD8A57B42F6EC42294604F1180097
:10480000FFF7D6FD002847D0E67B4FF47A72314699
:1048100004F13800FFF7CCFD08B300218E4223D904
:1048200000239D421DD903EB0112243234F91220DA
:10483000002A33DBB2F5616F32DC0133DBB2F0E723
:104840000029BDD1032014E0E389B3F5016F17D12E
:10485000A38AB3F5917F15D142F6EC41BDE7022062
:1048600007E00131C9B2D9E7002002E0012070471A
:10487000022070BD0220FCE70220FAE70220F8E7E0
:104880000220F6E70220F4E70220F2E70220F0E738
:104890000220EEE70220ECE70220EAE70220E8E748
:1048A0000220E6E770B540B3044602681A4B9A420C
:1048B00025D18388032B25D18379032B24D84FF46A
:1048C000A961FFF75BFED4F8483598421ED104F584
:1048D000A560FFF7DDFE0646D0B90546032D0FD8CB
:1048E0004FF4A47005FB00F0083001212044FFF7CD
:1048F0005BFF78B90135EDB2F0E7012600E0022652
:10490000304670BD0226FBE70226F9E70A26F7E7E4
:104910000226F5E70226F3E7434449372DE9F04F35
:1049200085B00446884691460A46817B1830FFF7D9
:1049300065FD05464A46E17B04F13800FFF75EFD60
:10494000064605EB001024306F1C07EB06112431DE
:1049500005F10C0334F813A005F10D0334F813B07E
:10496000CDF800B05346424634F9111034F9100026
:10497000FFF758FD0390731C05EB0315243507EB77
:1049800003172437CDF800B05346424634F91710C8
:1049900034F91500FFF746FD014606F11C031D36EC
:1049A00034F81620009234F813304A460398FFF783
:1049B00039FD00B205B0BDE8F08F00002DE9F041EF
:1049C000D2B0002800F0B68017461E4604460029E3
:1049D00000F0B580589B002B00F0B380599B002B52
:1049E00000F0B1800368002B00F0AF808388002BBB
:1049F00000F0AD80002A00F0AC80837C002B00F03A
:104A0000AA80C37C002B00F0A8804FF4A4726846F3
:104A1000FCF7DCF8A3890BB1ADF81030217D6846B6
:104A2000FFF7C2FE0546002840F08580B6F57A7F84
:104A300001D94FF47A762368190F4FEA031CBCEBB7
:104A4000030C61F100018900A388A7FB03234FEA4F
:104A50008C0041EA9C71FBF707FC0146599B1860EA
:104A6000421E43F2D3039A4279D8589A6846FFF718
:104A7000F2FC8046599B1875324619686846FFF764
:104A80004DFF599B9880E38923B11BB2984201DD09
:104A9000599A9380238A0BB9BDF81430599AD38060
:104AA00021686089334A0023A1FB0001FBF7DCFB8E
:104AB000599B186110B90123599A1361B8F1000F7D
:104AC0002ED1E588599BB3F90430ED1AB4F908608A
:104AD0002E44002D45DB002E45DB48F69F439D42CA
:104AE00043DC9E4243DCA388A7FB033CA3FB0501F8
:104AF00048F6A042002305FB0C11FBF7B5FB599BC0
:104B00009860A37D8BB1A388A7FB0371A7FB060464
:104B100048F6A042002306FB0141FBF7A5FB05E098
:104B20000023599A9360D36005E00020599BD86018
:104B3000454600E00125284652B0BDE8F081012538
:104B4000F9E70125F7E70125F5E70125F3E7012559
:104B5000F1E70125EFE70425EDE70425EBE705255F
:104B6000E9E70625E7E70625E5E70625E3E7062565
:104B7000E1E700BF40420F00F8B50D469DF8181060
:104B800058B314460646C27BAA4228D9827BA24269
:104B900027D904EB0512243230F9127039B107F12C
:104BA000C80293421FDCA7F1C80293421DDB04EB4D
:104BB0000512243226F812309DF81C103046FFF7FB
:104BC000F3FD18B9F38A0133F38209E004EB051110
:104BD00001F1240426F8147002E0012000E0012015
:104BE000F8BD0120FCE70720FAE70720F8E72DE9E8
:104BF000F04784B014469DF8302050B30D46074668
:104C00004CB3032929D86BBB72BB9DF834102046E6
:104C1000FFF7CAFD064608BB4FF4A47303FB057AF1
:104C20000AF108080DF1040998E8070089E807006F
:104C30001A4621464046FBF7C9FF99E8070088E875
:104C4000070000238AF81330BD713846FFF7B6FC21
:104C500004E0012602E0012600E00126304604B00F
:104C6000BDE8F0870826F9E70926F7E7000000000D
:104C700008B5B0F5805F01D340F6FF70064904A384
:104C8000D3E90023A0FB0101FBF7EEFA80B208BDD7
:104C9000C0E076D107000000203A0BD600000000EB
:104CA00008B5B0F5805F01D340F6FF704FF0000CFF
:104CB00002184CEB0C0C12184CF1000C4FEA4C3360
:104CC00043EAD2435103891A63EB0C039B0043EA86
:104CD00091738900091A63F100039B0143EA916310
:104CE000890111EB000C43F10003990106A3D3E9FC
:104CF00000234FEA8C1041EA9C61FBF7B5FA80B2C1
:104D000008BD00BFAFF3008010AA5E0500000000E0
:104D100030B100220260426002814FF49672C2807C
:104D200070472DE9F0479DF820809DF824909DF86C
:104D30002870B8B30E469A460546B1F5917F01D961
:104D40004FF491761046FFF793FF04466880504673
:104D5000FFF78EFFA8802246844228BF0246844285
:104D600038BF0446A31A9BB2B7B9B4F5967F13D2E5
:104D7000502C01D9322B0FD86B7AABB9B8F1000F98
:104D800017D0B9F1000F14D0331D9C4215D3022364
:104D90002B7200232B8005E001236B7203232B72FF
:104DA00000232B80BDE8F08703232B7200232B8088
:104DB000F8E700232B722B80F4E70A32964208D9D9
:104DC00001232B722B88991CEA889142EAD829800A
:104DD000E8E702232B722B88002BE3D0013B2B80CA
:104DE000E0E7D0F84C3163B990F860315BB9B0F8C6
:104DF00054311D2B09D8B0F856311D2B07D900208E
:104E00007047002070470020704700207047012045
:104E1000704798B130B583B00D46144603787BB126
:104E20002D2B10D00A2201A9FBF7BAFC019B1B789D
:104E30005BB9A8420BD82060012002E00020704737
:104E4000002003B030BD0020FBE70020F9E7002080
:104E5000F7E738B504460068D0F84855FFF7AEFBD1
:104E6000D4F8643143B1D4F868112068984718B970
:104E70002368C3F8485538BD0120FCE700B58646D5
:104E80004FF0000C4FF6FF700EE041F22100584049
:104E90000132072A06D843009BB210F4004FF4D128
:104EA0000020F4E70CF1010C8C4505D21EF80C3003
:104EB00080EA03200022ECE75DF804FB30B5C3B0C4
:104EC00015461C46009103460F4A4FF4807102A814
:104ED000FCF708F9FF2802D9002043B030BD014695
:104EE00002A8FFF7CBFF009002AB084A21462846F4
:104EF000FCF7F8F8031E04DD1846A342EDD30020AA
:104F0000EBE70020E9E700BF9CC90008A4C900083E
:104F100070B598B0044615461E460B46084A6021F7
:104F20006846FCF7DFF8411E5E2902D9002018B060
:104F300070BD33462A4669462046FFF7BFFFF6E7B5
:104F4000B0C900082DE9F04FADF2745D0446884603
:104F500016461F46BB490020FBF762FD002845D0DE
:104F60000546B949FBF70CFF002847D0B74928464A
:104F7000FBF706FF002800F09E80B5492846FBF7A6
:104F8000FFFE002800F00181B2492846FBF7F8FE39
:104F9000002800F07F81B0492846FBF7F1FE002889
:104FA00000F0C381AD492846FBF7EAFE002800F077
:104FB0000182AB492846FBF7E3FE002840F06282FD
:104FC0002046FFF70EFF002800F0188294F86331A6
:104FD00023B1B4F85C31042B00F21882DDF8983567
:104FE0003A46A0494046FFF793FF48E0DDF8983580
:104FF0003A469D494046FFF78BFF40E032469149D3
:10500000FBF70EFDA0B39949FBF7BAFE80BB204623
:10501000FFF7E7FEB8B3B4F85A31092B3BD9D4F8FF
:1050200000C00DF24C550CF5A5660FCE0FC596E8E5
:105030000F0085E80F009CF82E3513B901238CF87A
:105040002E352046FFF705FF68BB246804F5A564EC
:105050000DF24C550FCD0FC495E80F0084E80F00FA
:10506000DDF898353A4682494046FFF751FF06E0A1
:10507000DDF898353A467F494046FFF749FF0DF283
:10508000745DBDE8F08FDDF898353A467A494046C0
:10509000FFF73EFFF3E7DDF898353A46774940469B
:1050A000FFF736FFEBE7DDF898353A46744940469E
:1050B000FFF704FFE3E732466249FBF7B1FC8146A4
:1050C0002046FFF78EFE002847D0B9F1000F4CD0E4
:1050D0006C494846FBF754FE28B16B494846FBF73C
:1050E0004FFE002841D1D4F800A00DF24C550AF52E
:1050F000A5660FCE0FC596E80F0085E80F00624940
:105100004846FBF73DFEB0FA80F040098AF82F05CB
:105110000023A4F85A31226882F82E35226882F8DA
:105120004235226882F8433584F863312046FFF720
:1051300090FE10BB246804F5A5640DF24C550FCD0C
:105140000FC495E80F0084E80F00DDF898353A4663
:1051500047494046FFF7DCFE91E7DDF898353A46CF
:1051600045494046FFF7D4FE89E7DDF898353A46D1
:1051700036494046FFF7CCFE81E7DDF898353A46E0
:1051800042494046FFF79AFE79E732462D49FBF740
:1051900047FC0DF26C520421FFF73BFE00283FF460
:1051A000F3AEDDF86C95B9F1000F3FF4EDAE20469B
:1051B000FFF717FEA8B3D4F800C00DF24C550CF55C
:1051C000A5660FCE0FC596E80F0085E80F00ACF876
:1051D0003495236893F82E25012A02D9012283F8F9
:1051E0002E252268002382F84235226882F8433552
:1051F00084F863312046FFF72CFED0B9246804F50B
:10520000A5640DF24C550FCD0FC495E80F0084E84E
:105210000F00DDF898353A4615494046FFF778FE0D
:105220002DE7DDF898353A4613494046FFF770FE02
:1052300025E7DDF898353A4615494046FFF73EFE2A
:105240001DE700BFFCC9000810CA000878CA0008A2
:10525000B0CA0008D0CA0008D8CA000810CB00089D
:1052600018CB000824CB000800CA000818CA0008A0
:1052700060CA000820CA000830CA00084CCA0008EA
:1052800068CA000880CA000888CA000890CA0008D6
:10529000B4CA00083246BD49FBF7C2FB0DF26C529E
:1052A0009621FFF7B6FD00283FF475AEDDF86C954A
:1052B000B9F1270F7FF66FAE2046FFF792FD20B3BE
:1052C000D4F800C00DF24C550CF5A5660FCE0FC5F5
:1052D00096E80F0085E80F00ACF836952046FFF7FA
:1052E000B8FDD0B9246804F5A5640DF24C550FCD76
:1052F0000FC495E80F0084E80F00DDF898353A46B2
:10530000A3494046FFF704FEB9E6DDF898353A4672
:10531000A0494046FFF7FCFDB1E6DDF898353A4676
:105320009D494046FFF7CAFDA9E632469749FBF77B
:1053300077FB054690B19949FBF722FDE8B9236850
:1053400093F82E3513B194F860317BB1DDF89835C0
:105350003A4693494046FFF7DBFD90E6DDF8983585
:105360003A4690494046FFF7D3FD88E6012384F88A
:1053700063310023A4F85C3107E08B492846FBF732
:10538000FFFC68B9002384F8633194F863317BB182
:105390008649DDF898353A464046FFF78FFD6EE6C0
:1053A000DDF898353A467F494046FFF7B1FD66E69D
:1053B0007F49EEE732467549FBF732FB0DF26C523E
:1053C00048F69F41FFF725FD00283FF4F2AD94F821
:1053D00063313BB9DDF898353A4676494046FFF7E8
:1053E00097FD4CE6BDF86C35A4F85831DDF89835DA
:1053F0003A4671494046FFF761FD40E6DDF89835D1
:105400003A4664494046FFF783FD38E6D4F800C0C9
:105410000DF24C550CF5A5660FCE0FC596E80F00A2
:1054200085E80F00B4F85831ACF830352368022213
:1054300083F82E252268002382F84235226882F8FC
:10544000433584F863312046FFF703FD90B92468A3
:1054500004F5A5640DF24C550FCD0FC495E80F006F
:1054600084E80F00DDF898353A4649494046FFF791
:105470004FFD04E6DDF898353A4650494046FFF7BF
:105480001DFDFCE54E492846FBF77AFC00284DD06F
:105490004C492846FBF774FC002800F0D5804A49A7
:1054A0002846FBF76DFC002840F041812046FFF7BD
:1054B00098FC002800F02B81D4F800C09CF82E3511
:1054C000012B40F224810DF24C550CF5A5660FCE50
:1054D0000FC596E80F0085E80F0003238CF82E35E2
:1054E0002368012283F842252168002381F843358F
:1054F000216881F84425A4F85E312046FFF7A9FC15
:10550000002840F00C81246804F5A5640DF24C5588
:105510000FCD0FC495E80F0084E80F00DDF8983533
:105520003A461B494046FFF7F3FCA8E532461749C7
:10553000FBF776FA0DF26C5248F69F41FFF769FCD3
:105540000028A5D0324611490020FBF769FAA0B126
:105550001E49FBF715FC80B92046FFF742FC20B13D
:10556000D4F800C09CF82E35A3BBDDF898353A4638
:105570000B494046FFF7CCFC81E5DDF898353A460B
:1055800013494046FFF7C4FC79E500BFFCC9000899
:1055900060CA000830CA0008CCCA0008E0CA000887
:1055A000E4CA0008D8CA0008F4CA0008B8C900084C
:1055B000C8C90008F8CA00080CCB000834CB0008A2
:1055C00044CB0008B0CB0008C8CB000818CA0008BC
:1055D00050CB00080DF24C550CF5A5660FCE0FC54B
:1055E00096E80F0085E80F00BDF86C35ACF8303553
:1055F0002268022182F82E152168002281F84225B6
:10560000216881F84325A4F858312046FFF721FC92
:1056100090B9246804F5A5640DF24C550FCD0FC464
:1056200095E80F0084E80F00DDF898353A46BC494C
:105630004046FFF76DFC22E5DDF898353A46B9495A
:105640004046FFF73BFC1AE53246B749FBF7E8F95D
:1056500081462046FFF7C5FB90B3B9F1000F2FD06C
:10566000D4F800A00DF24C550AF5A5660FCE0FC573
:1056700096E80F0085E80F00AC494846FBF780FB31
:1056800030BBB4F85231AAF8383523680022A3F8A9
:105690003A252046FFF7DDFB88BB246804F5A564A6
:1056A0000DF24C550FCD0FC495E80F0084E80F00A4
:1056B000DDF898353A469A494046FFF729FCDEE482
:1056C000DDF898353A469A494046FFF721FCD6E482
:1056D00098494846FBF754FB48B9B4F85221BAF848
:1056E000383532339A4202D9AAF83A25D1E7DDF8A3
:1056F00098353A4690494046FFF70AFCBFE4DDF88A
:1057000098353A468D494046FFF7D8FBB7E4DDF8B7
:1057100098353A468A494046FFF7FAFBAFE4DDF890
:1057200098353A4687494046FFF7C8FBA7E48649C3
:105730002846FBF725FB814620B384492846FBF722
:105740001FFB002800F0188181492846FBF718FB51
:10575000002840F0B98132467349FBF761F948B13E
:105760007C49FBF70DFB28B92046FFF73AFB0028E0
:1057700040F06781DDF898353A4677494046FFF7B3
:10578000C7FB7CE432466849FBF74AF982460023AE
:105790000093D4F800B09BF82E35042B08D0022BD0
:1057A00008D9B4F85E31022B04D94FF0010901E0A9
:1057B0004FF0010909F001052046FFF712FB002810
:1057C00037D0002D35D00DF24C550BF5A56CBCE84B
:1057D0000F000FC59CE80F0085E80F0004238BF82D
:1057E0002E352368012283F842252368002283F89E
:1057F0004325BAF1000F68D058495046FBF7C0FA6C
:10580000F8B157495046FBF7BBFA00285DD1204656
:10581000FFF71FFB00286CD0236893F84335002B5B
:105820007BD05049DDF898353A464046FFF746FBB5
:1058300025E4DDF898353A464B494046FFF768FBCA
:105840001DE432463849FBF7EBF8B0B10A2269464D
:10585000FBF7B0F9009A12781ABBA2F6B832904260
:105860001FDB40F6B83290421BDC2268A2F83205FA
:105870002368012283F84325C9E7246804F5A56459
:105880000DF24C550FCD0FC495E80F0084E80F00C2
:10589000DDF898353A4635494046FFF739FBFFF7C2
:1058A000EEBB246804F5A5640DF24C550FCD0FC472
:1058B00095E80F0084E80F00DDF898353A462B494B
:1058C0004046FFF725FBFFF7DABB246804F5A56423
:1058D0000DF24C550FCD0FC495E80F0084E80F0072
:1058E000DDF898353A4622494046FFF711FBFFF7AD
:1058F000C6BB246804F5A5640DF24C550FCD0FC44A
:1059000095E80F0084E80F00DDF898353A46044921
:105910004046FFF7FDFAFFF7B2BB164982E700BF2A
:1059200060CA000864CB0008FCC9000890CB0008DE
:105930007CCB000898CB0008A0CB0008ACCB0008BB
:10594000B4CB0008C4CB0008D4CB000848CC000876
:105950004CCC000818CA000854CC0008F4CB00084E
:1059600008CC0008D8C90008DCCB0008FCCB000834
:1059700010CC0008E8C9000832465849FBF750F837
:1059800081462046FFF72DFA70B3B9F1000F2BD0F6
:10599000D4F800A00DF24C550AF5A5660FCE0FC540
:1059A00096E80F0085E80F004D494846FBF7E8F9F7
:1059B00018BB00238AF844352046FFF74AFAB8BBE3
:1059C000246804F5A5640DF24C550FCD0FC495E87D
:1059D0000F0084E80F00DDF898353A46414940460B
:1059E000FFF796FAFFF74BBBDDF898353A463E498C
:1059F0004046FFF78DFAFFF742BB3C494846FBF7AC
:105A0000BFF918B901238AF84435D5E73849484623
:105A1000FBF7B6F918B902238AF84435CCE7DDF86C
:105A200098353A4633494046FFF772FAFFF727BBED
:105A3000DDF898353A4630494046FFF73FFAFFF720
:105A40001EBB25680DF24C5605F5A5650FCD0FC69A
:105A500095E80F0086E80F006846FEF7BBFD256855
:105A600005F5A5650DF5A5660FCE0FC596E80F00E7
:105A700085E80F00BDF83035A4F85831002384F8CC
:105A80006331A4F85A312046FFF7E3F998B9246846
:105A900004F5A5640DF24C550FCD0FC495E80F0029
:105AA00084E80F00DDF898353A460E494046FFF786
:105AB0002FFAFFF7E4BADDF898353A460F49404629
:105AC000FFF7FCF9FFF7DBBADDF898353A460C49E9
:105AD0004046FFF71DFAFFF7D2BA00BFFCC9000825
